:100000000C94DD040C9424050C9424050C94240514
:100010000C9424050C9424050C9424050C942405BC
:100020000C9424050C9424050C94CC230C949F244C
:100030000C9478170C9424050C9424050C94240536
:100040000C9424050C9424050C9424050C9424058C
:100050000C9424050C94EC170C9424050C942405A2
:100060000C9424050C9424050C9424050C9424056C
:100070000C9424050C9424050C9424050C9424055C
:100080000C9424050C9424050C9424050C9424054C
:100090000C9424050C9424050C9424050C9424053C
:1000A0000C9424050C9424050C94240504000500EC
:1000B0000600070044454255473A20656E61626C70
:1000C00065642E0A000A0025303862003A200025B7
:1000D000303258000A722F632030313233343536D3
:1000E000370A000A002530325820006B6579626FAC
:1000F0006172645F7265706F72743A20000A002545
:10010000303258006B6579626F6172645F73657439
:100110005F6C65643A2000290A002575002F0025D0
:1001200075005D280025640020002564002000255E
:10013000640020002564007C0025303258006D6F7B
:100140007573656B6579205B62746E7C78207920AD
:100150007620685D287265702F61636C293A205B98
:10016000006D6B5F776865656C5F74696D655F7462
:100170006F5F6D6178203D2025640A006D6B5F77AD
:100180006865656C5F6D61785F7370656564203D5F
:100190002025640A006D6B5F74696D655F746F5F25
:1001A0006D6178203D2025640A006D6B5F6D61787C
:1001B0005F7370656564203D2025640A006D6B5F88
:1001C000696E74657276616C203D2025640A006D4D
:1001D0006B5F64656C6179203D2025640A006D6B5E
:1001E0005F776865656C5F74696D655F746F5F6D7F
:1001F0006178203D2025640A006D6B5F7768656536
:100200006C5F6D61785F7370656564203D20256467
:100210000A006D6B5F74696D655F746F5F6D617807
:10022000203D2025640A006D6B5F6D61785F7370FF
:10023000656564203D2025640A006D6B5F696E74FE
:10024000657276616C203D2025640A006D6B5F64E9
:10025000656C6179203D2025640A000A002575003F
:10026000363A20776865656C5F74696D655F746F99
:100270005F6D61783A20000A00257500353A2077D5
:100280006865656C5F6D61785F73706565643A2061
:10029000000A00257500343A2074696D655F746F3B
:1002A0005F6D61783A20000A00257500333A206DB1
:1002B00061785F73706565643A20000A00257500F7
:1002C000323A20696E74657276616C286D73293AD2
:1002D00020000A00257500313A2064656C61792898
:1002E0002A31306D73293A20000A092D2056616C9D
:1002F000756573202D0A004D3E004D25643E20009B
:100300003F007365742064656661756C740A004310
:100310003E200077686572652064656C74613A20E0
:10032000637572736F723D25642C20776865656C08
:100330003D25640A53656520687474703A2F2F65F3
:100340006E2E77696B6970656469612E6F72672FB5
:1003500077696B692F4D6F7573655F6B6579730A8C
:10036000000A092D204D6F7573656B6579202D0A84
:100370004553432F713A09717569740A313A09641A
:10038000656C6179282A31306D73290A323A09691E
:100390006E74657276616C286D73290A333A096D43
:1003A00061785F73706565640A343A0974696D65D4
:1003B0005F746F5F6D61780A353A09776865656CBF
:1003C0005F6D61785F73706565640A363A097768B6
:1003D00065656C5F74696D655F746F5F6D61780AE8
:1003E0000A703A097072696E742076616C75657373
:1003F0000A643A097365742064656661756C747388
:100400000A75703A092B310A646F776E3A092D31FB
:100410000A706775703A092B31300A7067646F771C
:100420006E3A092D31300A0A7370656564203D20EB
:1004300064656C7461202A206D61785F73706565F6
:1004400064202A2028726570656174202F207469E9
:100450006D655F746F5F6D6178290A003F004D3EE6
:100460002000433E20004C25640A0074696D6572CB
:100470005F72656164333228293A202530346C5824
:100480000A006B6579626F6172645F69646C653ADA
:100490002025580A006B6579626F6172645F707223
:1004A0006F746F636F6C3A2025580A00686F73741D
:1004B0005F6B6579626F6172645F6C656473282934
:1004C0003A2025580A000A092D2053746174757367
:1004D000202D0A004743433A20372E332E30204147
:1004E00056522D4C4942433A20322E302E30204174
:1004F00056525F415243483A20617672350A004FA6
:100500005054494F4E533A204C554641204D4F557B
:1005100053454B45592045585452414B455920436A
:100520004F4E534F4C4520434F4D4D414E44203488
:100530003039360A004255494C443A2022302E3692
:100540002E31392D352D673634326266302220281F
:1005500031373A34303A303320417072203237200C
:1005600032303138290A005649443A20307846451D
:10057000454428596F7529205049443A2030783035
:1005800030303028657A5F6B657929205645523ABC
:10059000203078303030310A00444553433A20410E
:1005A00020637573746F6D206B6579626F6172641F
:1005B0000A000A092D2056657273696F6E202D0A94
:1005C000000A092D20436F6E736F6C65202D0A455C
:1005D00053432F713A09717569740A6D3A096D6F49
:1005E0007573656B65790A000A092D204D6167698D
:1005F00063202D0A443A094465627567204D65738E
:100600007361676520546F67676C650A583A094DD6
:100610006174726978204465627567204D6F646506
:1006200020546F67676C65202D2053686F77206BAF
:1006300065797072657373657320696E206D61747E
:1006400072697820677269640A4B3A094B6579626E
:100650006F61726420446562756720546F67676CD0
:1006600065202D2053686F77206B657970726573F4
:1006700073207265706F72740A4D3A094465627531
:1006800067204D6F75736520546F67676C650A56F8
:100690003A0956657273696F6E0A533A0953746169
:1006A0007475730A433A094163746976617465200D
:1006B000436F6E736F6C65204D6F64650A46312D14
:1006C0004631303A0953776974636820746F204C5F
:1006D0006179657220302D392028463130203D2047
:1006E0004C30290A302D393A0953776974636820F0
:1006F000746F204C6179657220302D390A4553435F
:100700003A0953776974636820746F204C61796586
:100710007220302028616C7465726E617465206B84
:1007200065792031290A47524156453A095377697C
:1007300074636820746F204C6179657220302028C2
:10074000616C7465726E617465206B657920322905
:100750000A50415553453A094A756D7020746F200F
:10076000426F6F746C6F61646572202852657365A7
:1007700074290A003F000A6D6F7573653A206F6631
:10078000660A000A6D6F7573653A206F6E0A000A7B
:100790006B6579626F6172643A206F66660A000A5F
:1007A0006B6579626F6172643A206F6E0A000A6D40
:1007B00061747269783A206F66660A000A6D617426
:1007C0007269783A206F6E0A000A64656275673A4A
:1007D000206F66660A000A64656275673A206F6E6C
:1007E0000A000A0A4A756D70696E6720746F20628C
:1007F0006F6F746C6F616465722E2E2E2000433E05
:1008000020005B735D004B6579626F6172642073D9
:10081000746172742E0A005B575D005B535D005B70
:10082000525D005B445D005B435D000403300000EB
:10083000000E0365007A005F006B00650079000020
:1008400000080359006F0075000000040309040943
:10085000027400040100A0FA090400000103010170
:100860000009211101000122400007058103080051
:100870000A0904010001030102000921110100011C
:10088000224D000705820308000A09040200010343
:100890000000000921110100012236000705830331
:1008A00008000A09040300020300000009211101E5
:1008B000000122220007058403200001070504032C
:1008C0002000011201100100000008EDFE000001EF
:1008D00000010203010631FF0974A1010975150029
:1008E00026FF009520750881020976150026FF0075
:1008F000952075089102C005010980A101850216A5
:1009000001002603001A81002A83007510950181D9
:1009100000C0050C0901A1018503160100269C02F7
:100920001A01002A9C02751095018100C005010979
:1009300002A1010901A100050919012905150025D8
:100940000195057501810295017503810105010974
:100950003009311581257F95027508810609381502
:1009600081257F950175088106050C0A38021581DD
:10097000257F950175088106C0C005010906A10102
:10098000050719E029E71500250195087501810281
:10099000950175088101050819012905950575015D
:1009A00091029501750391010507190029FF1500B2
:1009B00026FF00950675088100C011241FBECFEFE9
:1009C000DAE0DEBFCDBF04B603FE27C08091D801B8
:1009D0009091D901A091DA01B091DB018730904B61
:1009E000A740B04BD1F41092D8011092D9011092C7
:1009F000DA011092DB0114BE84B7877F84BF0FB683
:100A0000F894A895809160008861809360001092AE
:100A100060000FBEE0E0F8E3099511E0A0E0B1E06E
:100A2000E8E8FDE402C005900D92A433B107D9F7C0
:100A300021E0A4E3B1E001C01D92A83DB207E1F7B7
:100A40000E94EF200C94C2260C940000FF93EF93B9
:100A5000E0913401F0913501309709F00995EF915B
:100A6000FF910895FC018591803011F0EFDFFBCFFD
:100A70000895FF27E0E230E247FF0CC0419597FF61
:100A800009C0EDE26095709580959095611D711D8E
:100A9000811D911D27FF02C0219530E350E2AA2756
:100AA000660F771F881F991FAA1FA41710F0A41B99
:100AB00063955A95A9F7AA3008F0A95FA05DAF9396
:100AC000F395611571058105910541F7ED3211F43A
:100AD000EF93F395F21718F43F93F395FBCF8F91B3
:100AE000B5DFFA95E1F70895E991F99185918030A4
:100AF00021F0853219F0AADFF9CF089520E0E894BB
:100B000055915532C1F3503311F4689455915A33CD
:100B100048F4505390F3220F022E220F220F200D83
:100B2000250FF4CF0EF4219589919991533619F33D
:100B3000533729F1533559F1BC0188279927E89497
:100B40005C3621F48991999168945591543639F421
:100B500046EF7EF077FF0DC08FEF9FEF0AC055374D
:100B60004AE039F0583540E121F0523642E009F0D0
:100B70000895FF93EF937DDFEF91FF91B7CFFF9340
:100B8000EF93FC0181918030B9F360DFFBCFFF93DD
:100B9000EF9368DFF1CFDF93CF93CDB7DEB7259624
:100BA000A3DFCF91DF9108950C94EC050C94ED0533
:100BB0000C94EE050C94F005611107C0FC018281D4
:100BC000882331F085EE0E94AD0C90E080E008951E
:100BD00085EE0E94880DF9CF0895089581E008956B
:100BE0005E9A089581E008950E94AC102FEF84E38F
:100BF0009CE0215080409040E1F700C000000C9440
:100C000012180F931F93CF93DF938C01FC01C081C7
:100C1000D181CE010E949915BE010E948607EC0188
:100C2000B8010E94D805882309F452C0B801CE014A
:100C30000E94E709882309F44BC0C531FCE5DF07B2
:100C400009F43DC1B0F4C130ECE5DE0709F446C05B
:100C500008F05AC0C115DC45B1F181E080933B0139
:100C600080933C01C801DF91CF911F910F910C94AB
:100C7000F205C33DECE5DE0709F406C1B8F4C13D59
:100C80008CE5D80709F4C4C0C23DDC4531F7F80152
:100C90008281882309F4E3C010923C010E94AA17C4
:100CA00090933A018093390180E2BFC0C63DFCE5D4
:100CB000DF0711F1C73DDC4581F6F8018281882309
:100CC00039F082E01EC0F801828181110E94F40592
:100CD00080E0DF91CF911F910F910895F8018281FB
:100CE0008823B1F38091A80181608093A80184EBEF
:100CF00090E00E943205ECCFF8018281882341F315
:100D000080E00E949421E4CFF8018281882309F4D5
:100D1000A9CF0E94D216811102C00E94B8160E946B
:100D2000E51690E09093CA018093C901FE01E3505B
:100D3000FC458091C9018160E231F105C8F4ED55AF
:100D4000F94F0C947226B506C106C506C906CD0634
:100D5000D106D506D906DD06E106E506E906ED066B
:100D6000F106F506F906FD0601078091C9018260CA
:100D70008093C9018091C9010E94E9160E94AC10BC
:100D8000A7CF8091C9018460F3CF8091C9018860A9
:100D9000EFCF8091C9018061EBCF8091C901806262
:100DA000E7CF8091C9018064E3CF8091C901806859
:100DB000DFCF8091C9018460EACF8091C9018E7F25
:100DC000D7CF8091C9018D7FD3CF8091C9018B7F0F
:100DD000CFCF8091C901877FCBCF8091C9018F7E12
:100DE000C7CF8091C9018F7DC3CF8091C9018F7B0F
:100DF000BFCF8091C9018F77BBCF8091C9018B7F15
:100E0000EACF9091C901892F97FB87F98058B0CF1D
:100E1000F8018281882361F010923B010E94AA1799
:100E2000909338018093370182E00E94D70D50CF14
:100E300080913B0181110FC0809137019091380161
:100E40000E94C217883C910530F486E20E94AD0CE6
:100E500086E20E94880D82E00E94DE0D39CF8091EB
:100E60003C0181110FC08091390190913A010E949B
:100E7000C217883C910530F487E20E94AD0C87E2EE
:100E80000E94880D80E2E8CFF8018281811104CFB1
:100E900080913C018111F6CF8091390190913A0106
:100EA0000E94C217883C910568F780E20E94DE0D1F
:100EB00088E20E94AD0C88E20E94880D09CF0E9452
:100EC0005F16F8019281992381F08A7A91E009F402
:100ED00090E090933601811106C089E20E94E815E6
:100EE0000E942C16F5CE85E3F9CF80913601811151
:100EF00004C089E20E94EF15F3CF85E3FBCF0C9489
:100F0000D4050C94D6050C94DA050895E82FF0E08A
:100F1000EE0FFF1FE70FF11DEE0FFF1FE60FF11D94
:100F2000EE0FFF1FE455FF4F859194910895FC014A
:100F3000EE0FFF1FE455FF4F859194910895CF93D5
:100F4000DF930E9486070E944309EC0181159045BA
:100F500008F043C0C11580E4D80708F00AC1C83EB4
:100F6000D10528F5C03ED10508F09EC0C83AD1058C
:100F700080F4C53AD10508F08DC0C130D10509F41F
:100F800093C020F0C430D10508F08EC0D0E0C0E09E
:100F90008BC0CD3BD10508F48BC0CE01805C91099C
:100FA000C03CD10598F30E949707EC017DC0C115A4
:100FB00020E2D20750F4C11581E0D80708F074C0D0
:100FC000C03FD10518F3D0656FC0C11520E3D2072B
:100FD00008F0C5C0CE019F70E6CFC11585E5D807E2
:100FE00060F5C11524E5D20708F0F1C0C11582E50E
:100FF000D80750F4C11521E5D20708F4BDC0DC2F95
:10100000CC27C16FD06A50C09C2F969596959E01B3
:1010100023703327C115D34508F0CAC0C1E0D0E022
:1010200002C0CC0FDD1F2A95E2F720E2929FC0019B
:101030001124C82BD92BDC6837C0C11529E5D2078C
:1010400080F4C11588E5D80708F0C6C0C11526E5AB
:10105000D20708F09BCFDC2FCC27CC27DF71D062E2
:1010600023C0C1158AE5D80708F4BBC0CE0190564D
:101070008115904208F08ACF8D2F8F710E94C3098D
:10108000DD27D06290E0982F882788279F71C82B92
:10109000D92B0AC0C53AD10509F4B0C0C63AD1056A
:1010A00009F4AFC0C3E8D0E4CE01DF91CF91089539
:1010B000C83AD10509F4A8C0C93AD10509F4A7C0B6
:1010C000CA3AD10509F4A6C0CB3AD10509F4A5C0A6
:1010D000CC3AD10509F4A4C0CB3BD10509F4A3C097
:1010E000CC3BD10509F4A2C0CD3AD10509F4A1C089
:1010F000C03BD10509F4A0C0CE3AD10509F49FC088
:10110000CF3AD10509F49EC0C13BD10509F49DC079
:10111000C23BD10509F49CC0C33BD10509F49BC077
:10112000C43BD10509F49AC0C53BD10509F499C067
:10113000C63BD10509F498C0C73BD10509F497C057
:10114000C83BD10509F496C0C93BD10509F495C047
:10115000CA3BD10509F094C0CAE2D6E4A5CFCE01BE
:101160009927D3FF03C0EC01D86C9ECFEC01D06C63
:101170009BCFDF70D06A98CFCE01E4E0969587953B
:10118000EA95E1F783709C2F937021E030E002C074
:10119000220F331F9A95E2F73C68382BC695C69507
:1011A000C37080E2C89FE0011124C22BD32B7CCFF7
:1011B000C1E0D0E002C0CC0FDD1F2A95E2F720E2AB
:1011C000929FC0011124C82BD92BDA686DCFDC2F78
:1011D000CC27C46FD06A68CFDC2FCC27C06FD06A11
:1011E00063CFCE0134E0969587953A95E1F78F70FD
:1011F000CF70C06ED0E0D06AD82B56CFC1E8D0E413
:1012000053CFC2E8D0E450CFC2EED4E44DCFC9EE04
:10121000D4E44ACFCAEED4E447CFC5EBD4E444CFFC
:10122000C6EBD4E441CFC3EBD4E43ECFC4EBD4E46B
:101230003BCFC7EBD4E438CFCCECD4E435CFCDEC06
:10124000D4E432CFC3E8D5E42FCFCAE8D5E42CCF1D
:10125000C2E9D5E429CFC4E9D5E426CFC1E2D6E47A
:1012600023CFC3E2D6E420CFC4E2D6E41DCFC5E24B
:10127000D6E41ACFC6E2D6E417CFC7E2D6E414CF3D
:10128000C0E0D4E411CF8238910549F1B0F4813344
:10129000910509F45CC048F48932910509F452C003
:1012A0008A32910509F458C008958533910509F4EF
:1012B00044C08933910599F00895833E910531F139
:1012C00038F4803E910591F0823E9105B1F0089589
:1012D000863E910511F1873E910541F108952091D7
:1012E000C9012370C9F080EE90E008952091C901F2
:1012F00020FF12C089E390E008952091C90122FFE8
:101300000BC024FF2EC090E080E008952091C90119
:1013100022FD2AC024FDF7CF08952091C90123FFA3
:10132000FBCF24FDF0CF87EE90E008952091C90116
:1013300023FFF0CF86EE90E008952091C90125FDAE
:1013400016C008952091C90125FD14C0089520916B
:10135000C90126FD12C008952091C90126FD10C0C3
:10136000089583EE90E0089582EE90E0089589E27A
:1013700090E0089585E390E008958AE290E0089572
:1013800081E390E0C9CF9091C90192FF06C0282F58
:101390002871283069F4877F846093FF06C0282F66
:1013A0002871283161F4877E846194FD877E0895D9
:1013B000282F2471243089F78B7F8860EECF282F67
:1013C0002471243191F78B7E8861EFCF08950F93BC
:1013D0001F93CF938C01FB018281811106C0C1E074
:1013E0008C2FCF911F910F910895C0914A01C11187
:1013F00025C006311C4599F70E94E60981E08093DB
:101400004A010E94AA1790934901809348011092C3
:101410003D0110923F0110923E0110924101109245
:101420004001109243011092420110924501109226
:1014300044011092470110924601D2CF8091480199
:10144000909149010E94C217883C910540F6809115
:101450003D01E82FF0E0EE0FFF1FE25CFE4F11832D
:1014600000838F5F80933D01C0E0BACF85B780686D
:1014700085BF85B7806885BF27982F9A52985A9A5A
:1014800085988D9A24982C9AADE4B1E01C92EBE4F7
:10149000F1E0108211961C9211820C947F07DF926A
:1014A000EF92FF920F931F93CF93DF93CBE4D1E0A2
:1014B00083E1E82E81E0F82E01E010E0DD24D394F2
:1014C00058811882F70181917F01E82FE295EF7032
:1014D000F0E091A18F70980101C0220F8A95EAF780
:1014E000892F822B81A392A1422F4095942392A30E
:1014F00080EA8A95F1F781E07D9980E09881892BD7
:1015000088831C993BC092E0892B888381A1842326
:1015100081A382A1822B82A38881581741F0D092A7
:101520004F010E94AA179093510180935001219678
:10153000E5E1EE16E1E0FE0619F680914F01882301
:1015400091F080915001909151010E94C21706972D
:1015500050F080914B0180934D0180914C0180931C
:101560004E0110924F010E94810781E0DF91CF91DF
:101570001F910F91FF90EF90DF90089590E0C4CFFE
:10158000E82FF0E0E35BFE4F80810895EF92FF9239
:101590000F931F93CF93DF9384ED90E00E94320569
:1015A0001F921F920FEC10E01F930F930E94CB0528
:1015B0008CEC90E00E9432058DE4E82E81E0F82E5C
:1015C000F70180810E94A0161F928F93C7ECD0E094
:1015D000DF93CF930E94CB0585EC90E00E9432050B
:1015E0001F9281E08F931F930F930E94CB058CEC89
:1015F00090E00E943205F70181810E94A0161F929F
:101600008F93DF93CF930E94CB05EDB7FEB7709613
:101610000FB6F894FEBF0FBEEDBF85EC90E0DF91F2
:10162000CF911F910F91FF90EF900C943205909302
:101630005701809356010895E0915601F0915701AA
:10164000309721F00190F081E02D099480E0089519
:10165000EF92FF920F931F93CF93DF938C01E09152
:101660005601F09157013097C1F10280F381E02DCE
:1016700009958091A80182FF30C080FF04C08BEEE5
:1016800090E00E943205D0E0C0E085EEE82E80E0D8
:10169000F82E8091A80180FF0EC0F801EC0FFD1F0D
:1016A00080811F928F93FF92EF920E94CB050F9043
:1016B0000F900F900F902196C830D10551F780916F
:1016C000A80180FF0AC083EE90E0DF91CF911F91C7
:1016D0000F91FF90EF900C943205DF91CF911F9105
:1016E0000F91FF90EF900895E0915601F09157010E
:1016F000309721F00480F581E02D09940895209120
:101700005401309155012817390771F09093550114
:1017100080935401E0915601F0915701309721F0E8
:101720000680F781E02D09940895209152013091AF
:1017300053012817390771F0909353018093520198
:10174000E0915601F0915701309721F00084F18526
:10175000E02D0994089508950C94AB0B81E0089551
:101760000E94A1170E94360A0C943618CF93C82FF6
:101770008091A80182FF1EC080FF04C084E091E038
:101780000E9432058091A80180FF0CC01F92CF9368
:101790008FEF90E09F938F930E94CB050F900F9057
:1017A0000F900F908091A80180FF04C08DEF90E012
:1017B0000E9432058C2FCF910C948307BF92CF9259
:1017C000DF92EF92FF920F931F93CF93DF93CDB7EA
:1017D000DEB72A970FB6F894DEBF0FBECDBF0E94CA
:1017E0004F0A0E94AE0B882309F467C089E5C82E12
:1017F00081E0D82E10E000E0B02E802F0E94C00AB9
:10180000F82EF601E1906F01E81609F453C08091BB
:10181000A80181FD0E94C60AEF24E0FC48C0E1FE59
:1018200049C091E081E09E83BF8221E030E0690100
:1018300002C0CC0CDD1C8A95E2F78F2D90E08C2144
:101840009D21892B09F420E028870E94AA17816036
:10185000782F9A8789874E815F8168858A850E9463
:101860007E0CF801E75AFE4F8081C826C0820E9494
:101870004B1A0E941C0B90915801891779F10E9414
:101880001C0B809358012A960FB6F894DEBF0FBE4A
:10189000CDBFDF91CF911F910F91FF90EF90DF901F
:1018A000CF90BF900C94B60B01E010E0A5CF90E074
:1018B00080E0B9CF01301105B9F78FEF89838A83B2
:1018C0001B820E94AA178160782F9D838C83498197
:1018D0005A816B818D810E947E0CC9CF2A960FB6EA
:1018E000F894DEBF0FBECDBFDF91CF911F910F9156
:1018F000FF90EF90DF90CF90BF900895CF93DF934C
:10190000CDB7DEB72B970FB6F894DEBF0FBECDBFB5
:101910004F83588769877A878B871E821D8285E06F
:10192000FE013796DE01119601900D928A95E1F73E
:1019300049815A816B817C818D819E812B960FB666
:10194000F894DEBF0FBECDBFDF91CF910C946C1326
:10195000FC01808191810C94DB15CF93C82F8823E3
:1019600009F4D4C08238C1F40E941C0B81FDCEC0A2
:1019700089E30E94E8150E942C162FEF81EE94E077
:10198000215080409040E1F700C0000089E30E94B0
:10199000EF15CF910C942C168338A1F40E941C0BE8
:1019A00080FDB4C083E50E94E8150E942C162FEF3D
:1019B00081EE94E0215080409040E1F700C00000AB
:1019C00083E5E5CF8438A1F40E941C0B82FD9EC004
:1019D00087E40E94E8150E942C162FEF81EE94E018
:1019E000215080409040E1F700C0000087E4CFCF55
:1019F0008CEF8C0F813A48F48C2F0E944C1D811182
:101A000085C08C2F0E94E815C4CF80E28C0F8830EF
:101A100048F4C77081E001C0880FCA95EAF70E94B8
:101A20006216B7CF8BE58C0F833068F481E890E0C5
:101A3000C53A31F083E890E0C63A11F482E890E0CC
:101A4000CF910C947F0B88E58C0F853108F05EC038
:101A500082EE90E0C83A09F456C089EE90E0C93AA7
:101A600009F451C08AEE90E0CA3A09F44CC085EB03
:101A700090E0CB3A09F447C086EB90E0CC3A09F409
:101A800042C083EB90E0CB3BF1F184EB90E0CC3BA8
:101A9000D1F187EB90E0CD3AB1F18CEC90E0C03B16
:101AA00091F18DEC90E0CE3A71F183E891E0CF3A7C
:101AB00051F18AE891E0C13B31F182E991E0C23B0A
:101AC00011F184E991E0C33BF1F081E292E0C43B83
:101AD000D1F083E292E0C53BB1F084E292E0C63BF4
:101AE00091F085E292E0C73B71F086E292E0C83B5C
:101AF00051F087E292E0C93B31F090E080E0CA3BD0
:101B000011F48AE292E0CF910C94950BCF91089555
:101B1000882309F44BC0823871F40E941C0B81FFAA
:101B200045C089E30E94E8150E942C1689E30E94B3
:101B3000EF150C942C16833859F40E941C0B80FF6F
:101B400035C083E50E94E8150E942C1683E5EFCF8F
:101B5000843859F40E941C0B82FF28C087E40E943D
:101B6000E8150E942C1687E4E2CF9CEF980F913A7B
:101B7000F0F290E2980F983050F4877091E001C035
:101B8000990F8A95EAF7892F0E946816D2CF9BE5B4
:101B9000980F933020F490E080E00C947F0B885AEB
:101BA000853120F490E080E00C94950B0895882313
:101BB00021F00E9462160C942C160895882321F0BF
:101BC0000E9468160C942C1608958F929F92AF92E3
:101BD000BF92DF92EF92FF920F931F93CF93DF9309
:101BE0007C01D62FC72FFC01058102950F70128151
:101BF00011110E9481160E942516D82E882371F09B
:101C0000112331F180E28D0F883010F182E00E94C3
:101C10000F160E94251691E0D82ED926BC2EB2941C
:101C20009FE0B922EB2DF0E0E85EF14F0C947226B4
:101C30002A0E2A0E7A0E7A0EBC0EE40EC30EC30EC6
:101C4000260FC30EC10FC10F4B10C30EC30E54108D
:101C5000D12CE4CF0C2F0F70C07F11F00295007FC4
:101C60001123A9F0002359F080E28D0F883010F085
:101C7000D11109C0802F0E9462160E942C168D2F50
:101C80000E94AD0C14C0802F0E947316F6CF8D2FCA
:101C90000E94880D002359F080E28D0F883010F0EB
:101CA000D11124C0802F0E9468160E942C16DD20BE
:101CB00009F401C20E94021680FDFDC1F7011282E3
:101CC0000E94FC150E94FD14C7010E9467100E942B
:101CD000FC15DF91CF911F910F91FF90EF90DF9056
:101CE000BF90AF909F908F900C941E15802F0E94F4
:101CF0007916DBCFFC2FFF70BF2EC07FC03219F0EA
:101D0000B29480EFB822DD2369F0D13029F111239C
:101D100069F1002359F0F701858180FFB0CF8F7002
:101D2000858304C0112361F0011104C08B2D0E9432
:101D3000D70DBDCF8B2D0130D1F70E949516B7CFAF
:101D4000011106C00E9498168B2D0E94DE0DAFCFA8
:101D5000013009F4ACCFF6CF112321F0063008F0A2
:101D6000A6CFE4CF053008F0A2CFEECF002361F379
:101D70008D2F0E94880D9BCF8C2F86958695837022
:101D800079F08130B9F098E0B91609F49BC0B91622
:101D900008F48DCF86EF8B0D823008F493C087CF87
:101DA0008D2F9C2F9370111102C090E080E00E9453
:101DB0007F0B7DCF8D2F9C2F9370111102C090E06F
:101DC00080E00E94950B73CF112309F1D53F99F064
:101DD000D63FB9F0D43F49F48091C3019091C4013A
:101DE00081609093C4018093C3018D2F0E94D2180B
:101DF0000E94BE195CCF8091C3019091C4018260A2
:101E0000F0CF8091C3019091C4018460EACFD53FA7
:101E100089F0D63FA9F0D43F49F48091C301909155
:101E2000C4018E7F9093C4018093C3018D2F0E94C3
:101E30003A19DECF8091C3019091C4018D7FF2CF1A
:101E40008091C3019091C4018B7FECCF8C2F837064
:101E500009F04BC0111136C02D2F22952695277001
:101E6000220F220F6D2F6F70862E912CB12CA12C7A
:101E7000022E04C0880C991CAA1CBB1C0A94D2F721
:101E800060E070E0CB01D4FF0FC06FE070E080E055
:101E900090E004C0660F771F881F991F2A95D2F71C
:101EA0006095709580959095C695C695C370C23023
:101EB00071F0A0F4682979298A299B29C13091F011
:101EC0000E94AF140E941C0B0E948307F0CE682969
:101ED00079298A299B290E94C114F4CF0E94AF144A
:101EE000C501B4010E949D14EDCF8695112311F018
:101EF0008C2F8170882331F32D2F22952695277002
:101F0000220F220F6D2F6F70862E912CB12CA12CD9
:101F1000022E04C0880C991CAA1CBB1C0A94D2F780
:101F200060E070E0CB01D4FF0FC06FE070E080E0B4
:101F300090E004C0660F771F881F991F2A95D2F77B
:101F40006095709580959095C695C695C370C23082
:101F500051F080F4682979298A299B29C13071F0D0
:101F60000E947415AFCF682979298A299B290E947C
:101F70008615A8CF0E947415C501B4010E94621590
:101F8000A1CFE0E2ED0FE53108F066C0F0E0E553E7
:101F9000F04F0C947226E00FE00FE00FE00FE00F1F
:101FA000E00FE00FE00FE00FE00FE00FE00FE00FB9
:101FB000E00FE00FE00FF10FFF0F06100D101710EC
:101FC000DF708C2F8F71112331F00E94FD148D2F43
:101FD0000E94D70DD8CE0E941E158D2F0E94DE0DB7
:101FE000D2CE112341F0053008F0CDCE8C2F8F7169
:101FF0000E944115C8CE063008F0C5CEF7CF8C2F11
:102000008F71112339F00E94FD14BDCE8C2F8F717A
:102010001123C9F30E941E15B6CE112329F08C2F6F
:102020008F710E94E814AFCE0E94E314ACCE11234E
:1020300049F0CF718C2F0E94FD1463E08C2F0E9419
:102040000616A1CE81E00E940F16023008F49BCE46
:1020500082E00E940F1697CE112349F0002321F051
:102060008D2F0E94AD0C8FCE8C2F8F71CCCF002383
:1020700079F0D93349F4FFEF27EE83E0F1502040A7
:102080008040E1F700C000008D2F0E94880D7BCEBC
:102090008C2F8F71BFCF4C2F4F706D2FC7010E94B7
:1020A000DC050E94151403CE4C2F4F706D2FC70115
:1020B0000E948507FCCDDF91CF911F910F91FF907A
:1020C000EF90DF90BF90AF909F908F9008950F9307
:1020D0001F93CF93DF93EC01988189812B813C8101
:1020E000232B39F08F3F19F481E09F3F19F080E0F6
:1020F00001C081E080FD17C0CE010E940106882347
:1021000091F0688179818A810E94E5158C010E9495
:1021100098150E949A14B801CE01DF91CF911F91BA
:102120000F910C94E50DDF91CF911F910F910895C0
:102130000E9481160E9492160E94F6150E942C168B
:102140000E94D61A0E94BE1990E080E00E947F0B88
:1021500090E080E00C94950B0E9470160C949810FF
:102160000E94DB15E92FE295EF70E250EE30E0F4CB
:10217000F0E0E354FF4E0C947226CB10CB10D41039
:10218000D410D610D410D410D410CB10CB10DB1038
:10219000D410D410DB10803F19F020F4803E20F4DE
:1021A00081E00895843FE1F380E00895803EC0F32C
:1021B000813FD1F7F5CF93FB882780F90895CF931E
:1021C000DF9300D000D01F92CDB7DEB70F900F90F5
:1021D0000F900F900F90DF91CF910895CF93DF93E1
:1021E00000D000D000D0CDB7DEB726960FB6F89459
:1021F000DEBF0FBECDBFDF91CF9108951F93CF9368
:10220000DF93C0915B0116E080915C018C1304C0E8
:10221000DF91CF911F910895D0E01C9FF0011D9F89
:10222000F00D1124E35AFE4F408151816281738188
:10223000848195810E94EE102196C770E5CF409170
:102240008D0150918E0160918F017091900180916C
:102250009101909192010C94EE101F93CF93DF9314
:1022600080919201807FD1F480918F018823B1F019
:1022700080915B01D0915C01B0918D01C0918E0184
:102280004091900150919101A1E0BF3F09F0A0E081
:10229000BA016095709516E0D81304C0DF91CF9114
:1022A0001F91089521E04115510521F02A2FCF3FBC
:1022B00009F020E090E020FD38C0189FF001199F40
:1022C000F00D1124E35AFE4F21812C132EC02081E2
:1022D0002B132BC02281211128C023813481241784
:1022E000350700F1241B350B283C3105F0F4209113
:1022F00092012F7020612093920126E0289FF00127
:10230000299FF00D1124EE59FE4F80818F7080615E
:1023100080838DE891E00E946710DF91CF911F913B
:102320000C94FE10260F371FDFCF01968770B4CFB5
:10233000AF92BF92CF92DF92EF92FF920F931F93D3
:10234000CF93DF93CDB7DEB761970FB6F894DEBFBA
:102350000FBECDBF8C0185E0F801DE011D96019016
:102360000D928A95E1F7D8014C9111965C911197E5
:102370001296EC9030918D0160918E0180919001C8
:102380009091910121E0009731F06F3F19F421E025
:102390003F3F09F020E0B22FB170BB2E20FD80C17D
:1023A000F801C380D480A0908F01AA2009F427C12E
:1023B000C816D906D0F1D601A81BB90BCD01FF2450
:1023C000F394883C910508F0F12C80919201982FAC
:1023D000907FFF2009F4CEC0911187C0FE2C6513B9
:1023E00029C0341327C0E11025C08F70806180930D
:1023F00092010E941F118DE891E00E946710809168
:102400009201F80185838F2D61960FB6F894DEBF97
:102410000FBECDBFDF91CF911F910F91FF90EF9035
:10242000DF90CF90BF90AF900895809590958C0DE0
:102430009D1DC5CF81E0CD2831F05F3F19F481E0CB
:102440004F3F09F080E080FD24C081E08E25F82F09
:10245000F170DF2E80FF3FC080915B0120915C0115
:1024600036E0821318C04D875E878D859E850E9459
:10247000DB15292F22952F70223008F1243030F5FA
:102480009F7009F1D80115969C91907FE1F4FB2C87
:10249000BACF80E0DCCF90E0389FF001399FF00D9B
:1024A0001124E35AFE4F6181561306C06081461322
:1024B00003C062816E110FC001968770D2CF9F70EA
:1024C00011F0882321F3805E883008F3C8010E9450
:1024D0006710BD2CDCCFEE2009F495CF80919201DE
:1024E000816080939201F12C8ECF651314C0341358
:1024F00012C0E11010C0F8018583C8010E94671066
:1025000086E0F801ADE8B1E001900D928A95E1F71F
:102510000E941F1178CF4D875E878D859E850E9412
:10252000B010882319F1EE2009F1809192018032D8
:1025300070F020918D0130918E0138872F8319869C
:10254000DB86CA868C87CE0107960E94671086E0DC
:10255000F801ADE8B1E001900D928A95E1F70E9493
:102560002D110E941F11FF24F3944DCFC8010E942A
:102570006710F9CF911113C07C2DD98AC88A6E2DAE
:1025800089890E94DF108DE891E00E94671086E043
:10259000EDE8F1E0DF011D928A95E9F7B9CF651307
:1025A00012C0341310C0E1100EC0F8018583C801B9
:1025B0000E946710EDE8F1E086E0DF011D928A9548
:1025C000E9F7FA2C20CF4D875E878D859E850E9486
:1025D000B010882359F2EE2049F2809192018032A6
:1025E00008F4B5CF20918D0130918E013A83298373
:1025F0001B82DD82CC828E83CE010196A6CFC816C7
:10260000D90638F1F601E81BF90BCF01F12C883C13
:10261000910508F03DC0FE2CEE2009F4A7CF65130C
:1026200026C0341324C08091920180FD17C0982FDA
:10263000907FA1F0D80115968C931597903F09F4DF
:102640005CCF982F907F905F8F70892B15968C931D
:1026500054CF809590958C0D9D1DD8CF86E0F801C4
:10266000ADE8B1E001900D928A95E1F7CCCE4D87AF
:102670005E878D859E850E94B010811168CF809104
:102680009201816080939201C8010E946710BBCEC5
:102690007C2DD98AC88A6E2D89890E94DF1077CF58
:1026A000EE2009F463CF4D875E878D859E850E945D
:1026B000B010F82E882309F459CF86E0F801ADE870
:1026C000B1E001900D928A95E1F78DE891E00E94CA
:1026D000A80C0E942D111CCF1F93CF93DF93CDB771
:1026E000DEB72C970FB6F894DEBF0FBECDBF4F8379
:1026F000588769877A878B879C87CE0107960E94C7
:102700009811882309F442C09F8188852A853B85DA
:10271000232B39F08F3F19F481E09F3F19F080E0BF
:1027200001C081E080FD08C04F81588569857A85A8
:102730008B859C850E94EE1016E080915B01909144
:102740005C01891709F467C0819FC0011124835A75
:102750009E4F0E949811882309F45DC0E0915B01AF
:102760001E9FF0011124E35AFE4F40815181628186
:102770007381848195810E94EE1080915B0190E0CD
:1027800001968770992780935B01D7CF86E0FE0181
:102790003796DE01119601900D928A95E1F79F819F
:1027A00088852A853B85232B39F08F3F19F481E0FA
:1027B0009F3F19F080E001C081E080FDBDCF2091F6
:1027C0005C0130E0C90101968770992740915B0157
:1027D0004817190699F096E0929FD001939FB00D8B
:1027E0001124A35ABE4FFE01319601900D929A9585
:1027F000E1F780935C010E94FE109ECF0E94AC1016
:1028000010925C0110925B0186E0EDE8F1E0DF01DF
:102810001D928A95E9F72C960FB6F894DEBF0FBE8D
:10282000CDBFDF91CF911F910895EF92FF920F934B
:102830001F93CF93DF938C01892B81F0F12CEE2431
:10284000E394E8012196F8018491843770F4843090
:1028500008F05FC08130B1F08230A1F1DF91CF91FB
:102860001F910F91FF90EF900895853709F44CC0A8
:1028700008F43DC09CE7980F903780F78F770E944F
:10288000880D49C00E5F1F4FFE01849190E2980FA2
:10289000983060F48770FE2D01C0FF0F8A95EAF72B
:1028A0008F2F0E9484160E942C1602C00E94AD0C2D
:1028B0008F2D815030F2EFE9FFE03197F1F700C042
:1028C0000000F7CF0E5F1F4FFE01849190E2980F3A
:1028D000983050F48770FE2D01C0FF0F8A95EAF7FB
:1028E0008F2F0E948A16DFCF0E94880DE1CF0E5FE6
:1028F0001F4FFE01C491C150D8F28FE99FE00197AC
:10290000F1F700C00000F7CF0E5F1F4FFE01F490FB
:10291000CFCF0E94AD0C8E01CBCF08950E948D14B5
:1029200060939701709398018093990190939A0115
:102930000C94981008950C948E140F931F9300918B
:102940009701109198012091990130919A01602B83
:10295000712B822B932B1F910F910C948E140F933C
:102960001F93009197011091980120919901309146
:102970009A0160237123822393231F910F910C945A
:102980008E140F931F93009197011091980120913D
:10299000990130919A0160277127822793271F910F
:1029A0000F910C948E140C948D140C94D3140E94DB
:1029B000D514609393017093940180939501909343
:1029C00096010C94981060E070E0CB010C94D71441
:1029D0000F931F9341E050E060E070E08A019B019B
:1029E00004C0000F111F221F331F8A95D2F7C9019F
:1029F000B8011F910F910C94D7140F931F9341E0CE
:102A000050E060E070E004C0440F551F661F771F60
:102A10008A95D2F78091930190919401A0919501AC
:102A2000B09196018A019B01082B192B2A2B3B2B75
:102A3000C901B8011F910F910C94D7140F931F93E4
:102A400041E050E060E070E004C0440F551F661F95
:102A5000771F8A95D2F7CB01BA0160957095809562
:102A600090950091930110919401209195013091DE
:102A7000960160237123822393231F910F910C945D
:102A8000D7140F931F9341E050E060E070E004C062
:102A9000440F551F661F771F8A95D2F780919301C7
:102AA00090919401A0919501B09196018A019B01AA
:102AB000082719272A273B27C901B8011F910F9121
:102AC0000C94D7140F931F930091930110919401CC
:102AD0002091950130919601602B712B822B932BC5
:102AE0001F910F910C94D7140F931F930091930192
:102AF00010919401209195013091960160237123EA
:102B0000822393231F910F910C94D7140F931F933B
:102B100000919301109194012091950130919601BB
:102B200060277127822793271F910F910C94D71448
:102B30000895BF92CF92DF92EF92FF920F931F936F
:102B4000CF93DF938C01C0909301D0909401E090DB
:102B50009501F09096018091970190919801A09134
:102B60009901B0919A01C82AD92AEA2AFB2ACFE111
:102B7000D0E0BC2ED701C6010C2E04C0B695A79597
:102B8000979587950A94D2F780FD0EC0219788F714
:102B9000B12C8B2DDF91CF911F910F91FF90EF9072
:102BA000DF90CF90BF900895B8018C2F0E949F07AF
:102BB000019761F3EECFCF93DF93EC010E9499155B
:102BC000BE01DF91CF910C949F07CB010C94DB15D4
:102BD000682F80910001909101010C942217682FB9
:102BE00080910001909101010C94241780910001C3
:102BF000909101010C94261780919B0185958595F4
:102C00008595089580919B018770089598E0899F2C
:102C100090011124622B60939B010C94FD14909100
:102C20009B018095892380939B01282F277061F455
:102C3000282F082E000C330B9217130629F08595C8
:102C4000859585950C941E15089590919B0197701C
:102C500081E009F480E00895E0910001F091010124
:102C60008091A7018083E0910001F09101018081B2
:102C70009091A601892B8083E0910001F0910101E0
:102C800080819091A501892B808390919C0199234B
:102C900081F0E0910001F09101018081892B808316
:102CA00080910001909101010E94EE168111109215
:102CB0009C0180910001909101010C94280B80915E
:102CC000A70108959091A701892B8093A7010895EA
:102CD000982F90958091A70189238093A70108954B
:102CE0001092A70108959091A601892B8093A601C7
:102CF0000895982F90958091A60189238093A6012D
:102D000008951092A60108959091A501892B8093B2
:102D1000A5010895982F90958091A501892380930E
:102D2000A50108951092A501089580939C0108952E
:102D300010929C0108959093350180933401089579
:102D4000829590E09C01220F331F220F331F2C7CB1
:102D500095958795959587958373282B30E0C901C4
:102D6000880F991F8A7A359527952575822B0895A6
:102D70006DEE7EEF90E080E00E94AC2660E082E0A5
:102D800090E00E949A2660E083E090E00E949A26FC
:102D900060E084E090E00E949A2660E085E090E0A8
:102DA0000C949A2690E080E00E94942621E08D3ECB
:102DB0009E4F09F020E0822F089582E090E00C946D
:102DC0008C2683E090E00C948C2684E090E00C94B8
:102DD0008C26682F84E090E00C949A26FC013196B2
:102DE0009C01285F3F4F80E0919191118F5FE21726
:102DF000F307D1F708959C01FC0132969FEF80E024
:102E00004191461751F09F3F19F4411101C0982F8D
:102E10008F5F8630A9F79F3F09F40895290F311D70
:102E200097FD3A95F90162830895FC013296089660
:102E30002191261303C0DF0111971C92E817F907AF
:102E4000B9F708950C94FB160C941517FC01118228
:102E5000128213821482158216821782089580913D
:102E6000CF01843039F11092A90188E190E020E48B
:102E70000FB6F894A895809360000FBE2093600071
:102E800080E00E94830783B7817F846083BF83B71C
:102E9000816083BF7894889583B78E7F83BF0FB698
:102EA000F894A895809160008861809360001092EA
:102EB00060000FBE0895089508950E945B170E9458
:102EC0004F0A0E945C1780E00E94C00A91E08111C5
:102ED00007C081E00E94C00A91E0811101C090E02A
:102EE000892F08950E94AC100E941C0B0C9483073C
:102EF0001F920F920FB60F9211248F939F93AF934F
:102F0000BF938091A901811113C08091C501909157
:102F1000C601A091C701B091C8014196A11DB11D84
:102F20008093C5019093C601A093C701B093C801D7
:102F3000BF91AF919F918F910F900FBE0F901F90F7
:102F4000189582E084BD93E095BD9AEF97BD80937C
:102F50006E0008952FB7F8948091C5019091C60135
:102F6000A091C701B091C8012FBF08952FB7F89461
:102F70006091C5017091C6018091C7019091C8010F
:102F80002FBF0895CF92DF92EF92FF920F931F937E
:102F90002FB7F8944091C5015091C6016091C701C7
:102FA0007091C8012FBF6A017B01EE24FF248C01C0
:102FB00030E020E0C016D106E206F30650F0481BD0
:102FC000590BCA011F910F91FF90EF90DF90CF90A6
:102FD000089541505109F3CF78941F920F920FB684
:102FE0000F9211248F939F93AF93BF938091C5014C
:102FF0009091C601A091C701B091C8010196A11D91
:10300000B11D8093C5019093C601A093C701B093F1
:10301000C801BF91AF919F918F910F900FBE0F90FC
:103020001F90189581E08093E00080E28093D800A3
:103030001092C9008FE19EE40197F1F700C00000F3
:1030400087E090EBDC018093D8019093D901A093A5
:10305000DA01B093DB0188E19CE00FB6F894A89503
:10306000809360000FBE90936000FFCF0E94D21645
:10307000811102C00E94B8160E94DD168093A8013B
:103080000E94E51690E09093CA018093C9010E94C6
:10309000E116682F70E090E080E00C949B14809122
:1030A000AC0180FF12C06091050185E0689FB0010E
:1030B0001124759567957595679560387105A8F524
:1030C00061157105A1F1862F089581FF09C06091F6
:1030D000050185E0689FB001112475956795EDCFD6
:1030E00082FF07C06091050185E0689FB00111244F
:1030F000E4CF2091AD012223A9F0909104016091C9
:10310000050185E0689FB00111242917B0F6269FBC
:10311000A001279F500D1124692F70E0CA010E9461
:103120005E26CBCF65E070E0CECF8FE7089581E0DB
:1031300008958091AC0180FF0CC06091030170E0A4
:1031400075956795759567956115710549F1862F98
:10315000089581FF06C06091030170E07595679541
:10316000F3CF6091030182FD0BC09091AD019923D3
:10317000A1F06091020180910301961738F0682F49
:1031800070E06038710500F38FE70895899FC001F2
:10319000112470E00E945E26F4CF61E070E0D7CF8A
:1031A00081E00895803F31F40E944F18819580930B
:1031B000B0010895813F19F40E944F18F8CF823F63
:1031C00031F40E944F1881958093AF010895833F99
:1031D00019F40E944F18F8CF893F29F40E949918DA
:1031E0008093B10108958A3F21F40E949918819536
:1031F000F7CF8B3F31F40E94991881958093B201EB
:1032000008958C3F19F40E949918F8CF843F31F447
:103210008091AE0181608093AE010895853F21F4D5
:103220008091AE018260F7CF863F21F48091AE019C
:103230008460F1CF873F21F48091AE018860EBCFAD
:10324000883F21F48091AE018061E5CF8D3F31F45C
:103250008091AC0181608093AC0108958E3F21F490
:103260008091AC018260F7CF8F3FB9F78091AC01BC
:103270008460F1CF803FC1F48091B00187FD10924E
:10328000B0018091AF0181110EC08091B001811118
:103290000AC08091B101811106C08091B2018111F3
:1032A00002C01092AD010895813F29F48091B001D0
:1032B00018162CF3E6CF9091AF01823F29F497FFC7
:1032C000E0CF1092AF01DDCF833F19F41916CCF394
:1032D000D8CF893F39F48091B101181694F6109235
:1032E000B101CFCF8A3F29F48091B10187FFC9CFC7
:1032F000F6CF8B3F39F48091B20187FFC2CF109295
:10330000B201BFCF8C3F29F48091B2011816BCF3F3
:10331000B8CF843F31F48091AE018E7F8093AE01AF
:10332000B0CF853F21F48091AE018D7FF7CF863FEE
:1033300021F48091AE018B7FF1CF873F21F4809102
:10334000AE01877FEBCF883F21F48091AE018F7E65
:10335000E5CF8D3F31F48091AC018E7F8093AC013D
:1033600090CF8E3F21F48091AC018D7FF7CF8F3FBE
:1033700009F087CF8091AC018B7FF0CF8091A801BD
:1033800083FF7EC08EE391E00E9432058091AE0102
:103390001F928F9389E391E09F938F930E94CB05B7
:1033A00087E391E00E9432058091AF01282F082E1B
:1033B000000C330B3F938F9384E391E09F938F93A3
:1033C0000E94CB0582E391E00E9432058091B0011A
:1033D000282F082E000C330B3F938F938FE291E040
:1033E0009F938F930E94CB058DE291E00E9432055E
:1033F0008091B101282F082E000C330B3F938F933F
:103400008AE291E09F938F930E94CB0588E291E03E
:103410000E9432058091B201282F082E000C330B38
:103420003F938F9385E291E09F938F930E94CB050A
:1034300082E291E00E9432058091AD011F928F934C
:103440008FE191E09F938F930E94CB058DE191E0F6
:103450000E9432058091AC011F928F938AE191E026
:103460009F938F930E94CB0587E191E00E943205E4
:103470008DB79EB74C960FB6F8949EBF0FBE8DBF0A
:103480008EEA91E00E94740B0E94AA179093AB0100
:103490008093AA0108951F93CF93DF938091AA018F
:1034A0009091AB010E94C217AC019091AD012091A7
:1034B000060130E0911106C0209107018AE0289FA3
:1034C000900111244217530780F08091AF011091B1
:1034D000B001D091B101C091B20181110AC01111A6
:1034E00061C0D1115FC0C1115DC0DF91CF911F914B
:1034F00008959F3F19F09F5F9093AD01181624F433
:103500000E944F188093AF018091AF0187FF05C0E3
:103510000E944F1881958093AF01111624F40E94E8
:103520004F188093B0018091B00187FF05C00E94C1
:103530004F1881958093B0014091AF01442379F0F9
:103540003091B001332359F025EB4203A00111243F
:103550005093AF013203900111243093B0011D1636
:1035600024F40E9499188093B1018091B10187FFE2
:1035700005C00E94991881958093B1011C1624F40E
:103580000E9499188093B2018091B20187FF05C013
:103590000E94991881958093B201DF91CF911F917C
:1035A0000C94BE199F3F09F0A6CFB7CF85E0EEEA95
:1035B000F1E0DF011D928A95E9F71092AD011092BA
:1035C000AC01089581E693E00E9432051F9281E0EC
:1035D0008F931F9285E08F9383E193E09F938F9366
:1035E0000E94CB050F900F900F900F900F900F90AF
:1035F0000895833009F445C028F4813061F08230A9
:1036000049F10895853009F46AC008F451C0863044
:1036100009F47CC0089580910701482F460F552773
:10362000551F4F3F510594F4680F60930701809137
:1036300007011F928F938CE492E09F938F930E94D7
:10364000CB050F900F900F900F9008958FEF809300
:103650000701EDCF80910601482F460F5527551FD2
:103660004F3F510554F4680F6093060180910601A5
:103670001F928F938AE392E0E0CF8FEF8093060151
:10368000F5CF80910501482F460F5527551F4F3F15
:10369000510554F4680F60930501809105011F9254
:1036A0008F9387E292E0C9CF8FEF80930501F5CF2A
:1036B00080910401482F460F5527551F4F3F510554
:1036C00054F4680F60930401809104011F928F935A
:1036D00082E192E0B2CF8FEF80930401F5CF809129
:1036E0000301482F460F5527551F4F3F510554F4EE
:1036F000680F60930301809103011F928F9389EFFC
:1037000091E09BCF8FEF80930301F5CF8091020171
:10371000482F460F5527551F4F3F510554F4680F4A
:1037200060930201809102011F928F938EED91E0D0
:1037300084CF8FEF80930201F5CF8330C9F128F455
:10374000813061F0823019F10895853009F452C05A
:1037500008F43FC0863009F45EC0089580910701E7
:10376000681790F4861B80930701809107011F92D0
:103770008F938FEC91E09F938F930E94CB050F90D6
:103780000F900F900F90089510920701EECF809147
:103790000601681750F4861B80930601809106018C
:1037A0001F928F938DEB91E0E6CF10920601F6CF3A
:1037B00080910501681750F4861B80930501809164
:1037C00005011F928F938AEA91E0D5CF10920501EF
:1037D000F6CF80910401681750F4861B8093040192
:1037E000809104011F928F9385E991E0C4CF1092DC
:1037F0000401F6CF80910301681750F4861B809373
:103800000301809103011F928F938CE791E0B3CF66
:1038100010920301F6CF80910201681750F4861BC5
:1038200080930201809102011F928F9381E691E0C3
:10383000A2CF10920201F6CFCF93C82F1F928F9381
:1038400086E694E09F938F930E94CB0561E070E041
:1038500080E090E004C0660F771F881F991FCA950B
:10386000D2F70E949B140F900F900F900F90CF9162
:103870000C94AC10873208F040C08E3108F0FBC0C9
:103880008E3009F497C078F4873009F478C08B3013
:1038900009F45EC0863009F460C084E797E00E94B6
:1038A000320580E00895863109F4AEC078F48031A5
:1038B000A1F79091A801892F877F93FF886080935B
:1038C000A80183FF87C083E897E011C0893109F41C
:1038D00084C08B3111F79091A801892F8D7F91FFC2
:1038E00082608093A80181FF62C08CEB97E00E9408
:1038F00032058091A801816057C0883349F150F4A6
:10390000893221F0853311F0873239F680E00E9448
:103910001C1C1CC08334D1F328F48A3308F4BDCFB7
:103920008953F5CF883409F0B8CF0E94AC1082EEED
:1039300097E00E9432052FEF83ED90E32150804005
:103940009040E1F700C000000E94121881E0089545
:1039500088EE95E00E943205F9CF8091A801817F21
:103960008E7F8093A80181EC95E00E9432058EEF56
:1039700097E00E94320581E08093B4010895909110
:10398000A801892F8E7F90FF81608093A80180FF1E
:1039900003C086ED97E0DECF89EC97E00E94320508
:1039A0008091A801897F877F8093A801CFCF8EEA7D
:1039B00097E0D0CF9091A801892F8B7F92FF8460F0
:1039C0008093A80182FF03C08FE997E090CF8FE832
:1039D00097E0C0CF86E797E0BDCF82EB95E00E94ED
:1039E000320589E995E00E94320587E695E00E945C
:1039F000320585E395E00E9432058FEF94E00E9446
:103A0000320584ED94E0A6CF86EC94E00E94320566
:103A10000E941C0B1F928F938CEA94E09F938F93CC
:103A20000E94CB05809112011F928F9385E994E04B
:103A30009F938F930E94CB058091C1011F928F931A
:103A400082E894E09F938F930E94CB050E94B61763
:103A50009F938F937F936F938BE694E09F938F93C5
:103A60000E94CB058DB79EB742960FB6F8949EBFC5
:103A70000FBE8DBF6BCF8D514ACF80E008950C945F
:103A80003D1D8E518A3030F4E82FF0E0EB5EFE4FA2
:103A90008081089580E00895CF93C82F8091B4016C
:103AA0008130D1F038F0823009F44DC01092B40169
:103AB00080E010C0E0910001F0910101808182322C
:103AC000B9F78C2F0E943D1D81111EC08C2F0E94C2
:103AD0003A1C8170CF910895E0910001F0910101AD
:103AE0008081823271F38C2F0E943F1D81111BC097
:103AF000C431D9F060F4CB3071F0C031D1F08CE535
:103B000094E00E94320513C081E090E0E2CFC93218
:103B100061F0C833A1F781EC95E00E94320582E69E
:103B200094E00E94320581E0D4CF1092B40180E08D
:103B3000D0CF0E94E21A8EE594E00E94320582E026
:103B40008093B401F0CFC432C8F4CE3108F0BEC0C7
:103B5000CB30E1F040F4C73009F4CCC080E093E012
:103B60000E94320526C0C331C1F1C431B9F780913A
:103B7000B301882351F11092B3010AC0CB3409F488
:103B8000B7C0C8F4C93299F3C83341F70E94E21AAA
:103B90008091B301882309F4C4C01F928F938AEFE8
:103BA00092E09F938F930E94CB050F900F900F9000
:103BB0000F9081E08FCFC13509F494C0C23509F46C
:103BC0008BC0CE3459F66AE08EC08FE093E00E943D
:103BD000320581E08093B4017DCF89EE92E00E94AE
:103BE000320587ED92E00E943205809107011F9215
:103BF0008F9384ED92E09F938F930E94CB0582ED8B
:103C000092E00E94320580EC92E00E9432058091A1
:103C100006011F928F938DEB92E09F938F930E94EA
:103C2000CB058BEB92E00E9432058CEA92E00E9479
:103C30003205809105011F928F9389EA92E09F934C
:103C40008F930E94CB0587EA92E00E94320586E9B5
:103C500092E00E943205809104011F928F9383E9C4
:103C600092E09F938F930E94CB0581E992E00E949E
:103C700032058CE792E00E943205809103011F9289
:103C80008F9389E792E09F938F930E94CB0587E7FC
:103C900092E00E94320580E692E00E943205809117
:103CA00002011F928F938DE592E09F938F930E9464
:103CB000CB058BE592E00E9432058DB79EB7489602
:103CC0000FB6F8949EBF0FBE8DBF62CF8C2F0E949F
:103CD000411D8093B3015CCF61E08091B3010E94EC
:103CE000F91A56CF61E08091B3010E949D1B50CF1D
:103CF0006AE0F3CF8EE18093070182E380930601AF
:103D00008AE08093050184E18093040188E0809338
:103D1000030188E28093020182E093E00E94320571
:103D200037CF87EF92E01CCF8091C00108959FB7F5
:103D3000F8941092B7019FBF9091CF01943009F091
:103D400049C02091E9002F709091EC0090FD30C0A7
:103D500090E0922B24E02093E9002091EB0020FFDB
:103D600036C02091EE0027FF32C02091B5012223FA
:103D700021F02091E80025FF2AC01092B50126E02D
:103D80003091E80035FF16C08093F1008091E80083
:103D900085FD29C08091E80080FFFCCF8091E8007C
:103DA0008E778093E8009F709093E90080E00895FB
:103DB00090E8CFCF3091CF01343049F43091EB000F
:103DC00035FD05C0215041F481E08093B5019F701D
:103DD0009093E9008FEF0895EFE9FFE03197F1F755
:103DE00000C00000CDCF8FB7F89421E02093B70139
:103DF0008FBFD9CF0F931F93CF93DF9300D01F9224
:103E0000CDB7DEB78C010E94A421823011F084303E
:103E100019F583E089831B830A838093E9008FEF80
:103E20009091E800815095FD06C095ED9A95F1F7C7
:103E300000008111F5CF8091E80085FF0DC050E0B2
:103E400040E063E070E0CE0101960E94C1218091C4
:103E5000E8008E778093E8000F900F900F90DF912D
:103E6000CF911F910F910895CF93DF9300D01F92B0
:103E7000CDB7DEB72091CF01243031F522E0298380
:103E8000805891099B838A8383E08093E9008FEFB8
:103E90009091E800815095FD06C095ED9A95F1F757
:103EA00000008111F5CF8091E80085FF0DC050E042
:103EB00040E063E070E0CE0101960E94C121809154
:103EC000E8008E778093E8000F900F900F90DF91BD
:103ED000CF910895CF93DF93EC010E94A42182300B
:103EE00011F08430F9F482E08093E9008FEF909133
:103EF000E800815095FD06C095ED9A95F1F7000018
:103F00008111F5CF8091E80085FF0CC050E040E0C2
:103F100065E070E0CE010E94C1218091E8008E77BB
:103F20008093E800DF91CF910895CF93DF93EC0168
:103F30000E94A421823011F0843039F581E0809311
:103F4000E9008FEF9091E800815095FD06C095ED56
:103F50009A95F1F700008111F5CF8091E80085FF77
:103F600014C050E040E068E070E0CE010E94C12142
:103F70008091E8008E778093E80088E0FE01A8EB4E
:103F8000B1E001900D928A95E1F7DF91CF9108950C
:103F900087E298E00E9432058091CE01811109C02C
:103FA0000E9451230E94AE238091E200846080939E
:103FB000E200089583E298E00E9432051092CE015B
:103FC00008958FE198E00C9432058BE198E00C9411
:103FD000320587E198E00E9432050C947217209117
:103FE000B6012F5F822F62E30E945226992319F0B7
:103FF0002093B60108951092B6018091B7018823ED
:10400000E9F08091CF018430B9F49091E9009F707C
:104010008091EC0080FD13C080E0892B94E09093A8
:10402000E9009091EB0090FF04C09091EE0097FDA5
:104030000AC08F708093E9001092B701089580E85C
:10404000ECCF1092F1009091E80095FDFACF90919D
:10405000E80090FFEECF9091E8009E779093E80003
:10406000E8CF42E061EC81E00E94CF2242E061ECC7
:1040700082E00E94CF2242E061EC83E00E94CF22E6
:1040800042E261EC84E00C94CF228091D101833034
:1040900009F452C030F4813059F1823009F48EC0F5
:1040A00008958A3009F47AC08B3009F460C08930F1
:1040B00009F041C08091D0018132E9F58091D401AD
:1040C0009091D501892BB9F58091E800877F809385
:1040D000E8008091E80082FF2AC08091F10080937F
:1040E000C0018091E8008B778093E8000C94032353
:1040F0008091D001813AF9F48091E800877F809324
:10410000E8008091D4019091D501892B61F468E099
:1041100088EB91E070E00E9410228091E8008B779C
:104120008093E800089560E090E080E0F3CF809114
:10413000CF018111CECF08958091D001813AD9F776
:104140008091D4019091D501892BA9F78091E80045
:10415000877F8093E8008091E80080FFFCCF80910A
:1041600012018093F1008091E8008E77BDCF80919D
:10417000D001813201F78091D4019091D501892B32
:10418000D1F68091E800877F8093E8000E940323A6
:104190008091D201809312010C94AC108091D001D7
:1041A000813249F68091E800877F8093E8000E9481
:1041B00003238091D3018093C10108958091D001A0
:1041C000813A09F0B8CF8091E800877F8093E800BA
:1041D0008091E80080FFFCCF8091C101C2CF84B7FD
:1041E000877F84BF0FB6F894A8958091600088619E
:1041F00080936000109260000FBE80E880936100A1
:10420000109261000E94AC0B0E9451230E94AE23C9
:104210008091E20084608093E20087E99EE10E9441
:104220009B1678940E9436260E94B00B88E091E09D
:104230000E94170B86E098E00E9432058091CF0122
:10424000853019F00E94DE0BF9CF82E098E00E94E1
:1042500032050E942F178091CD01882379F30E94A7
:104260005D17882359F30E94AB21E8CF0C943821C5
:10427000292F33272330310579F158F421303105C6
:10428000F1F02230310519F190E080E030E020E0DB
:104290001AC021323105C9F122323105A9F7643043
:1042A000710590F7FB01EE0FFF1FED5DFE4F2081C2
:1042B0003181615E7E4FFB01808190E004C082E12C
:1042C00090E023EC38E0FA0131832083089584E7FD
:1042D00090E02FE438E0F7CF99278130910579F00D
:1042E00040F08230910571F0039771F6EBE2F8E04F
:1042F00002C0EBE4F8E0849190E09F01E4CFE1E4B8
:10430000F8E0F9CFE1E3F8E0F6CF6430710508F0AA
:10431000BBCF660F771FFB01E55DFE4F208131812A
:1043200089E090E0D0CF0895CF93C82F0E949321C9
:10433000C093C201CF9108958091CF01843011F0D4
:1043400081E0089582E008958091C201811102C048
:104350000C949C21089580E189BD82E189BD09B456
:1043600000FEFDCF8091D8008F7D8093D800809192
:10437000E00082608093E0008091E00081FDFCCF4E
:104380000895AF92BF92CF92DF92FF920F931F9347
:10439000CF93DF936C01EB018A010E942223F82E58
:1043A000811123C00115110539F0F8018081918137
:1043B000C81BD90BC80ED91EB12CA12C2097A9F06F
:1043C0008091E80085FD22C08091E8008E7780937F
:1043D000E80001151105A1F0F80180819181A80E76
:1043E000B91EB182A08285E0F82E8F2DDF91CF918A
:1043F0001F910F91FF90DF90CF90BF90AF900895E5
:104400000E9422238823D1F2F82EEFCFF60181916A
:104410006F018093F1002197FFEFAF1ABF0ACECF53
:10442000FC018091D6019091D70186179707A0F0E3
:104430006115710529F49091E8009E779093E8004A
:1044400090E06115710551F4911108C08091E80068
:1044500082FF35C080E00895BC01F2CF8091CF018A
:104460008823C9F18530C9F18091E80083FD31C00E
:104470008091E80082FDEACF8091E80080FFE1CFE3
:104480002091F3008091F200322F282F61157105E1
:1044900019F02830310558F091E02830310509F045
:1044A00090E02091E8002E772093E800CACF819118
:1044B0008093F100615071092F5F3F4FE7CF8091EA
:1044C000CF01882341F0853041F08091E80083FFDF
:1044D000BDCF81E0089582E0089583E00895FC0156
:1044E0008091D6019091D70186179707A0F06115AA
:1044F000710529F48091E8008E778093E80090E0C0
:104500006115710551F4911108C08091E80082FF96
:1045100036C080E00895BC01F2CF8091CF0188239E
:10452000D1F18530D1F18091E80083FD32C08091D6
:10453000E80082FDEACF8091E80080FFE1CF209182
:10454000F3008091F200322F282F6115710519F0C8
:104550002830310558F091E02830310509F090E01D
:104560008091E8008E778093E800CACF8491809391
:10457000F1003196615071092F5F3F4FE6CF809176
:10458000CF01882341F0853041F08091E80083FF1E
:10459000BCCF81E0089582E0089583E00895982FCC
:1045A000973028F08F708093E90081E00895909310
:1045B000E900242F762F50E0981731F07091EC002D
:1045C0002091ED005091F00021FD02C09F5FE8CFE7
:1045D0003091EB003E7F3093EB003091ED003D7F5A
:1045E0003093ED003091EB0031603093EB0070932D
:1045F000EC002093ED005093F0002091EE0027FD99
:10460000E5CF80E008958091D00187FF13C08091AD
:10461000E80082FF06C08091E8008B778093E80075
:1046200004C08091CF018111F2CF08958091CF0114
:104630008823D9F38091E80080FFF8CF8091E800CB
:104640008E77ECCF2091E4003091E50085E69091E3
:10465000EC0090FF06C09091E80090FF06C080E05B
:1046600008959091E80092FDFACF9091CF0199239F
:1046700091F0953091F09091EB0095FD10C0409134
:10468000E4005091E5002417350709F381509A01A1
:10469000F1F684E0089582E0089583E0089581E0D2
:1046A00008950E94BF230E94C723E0EEF0E08081BE
:1046B00081608083E8EDF0E080818F77808319BC92
:1046C000A7EDB0E08C918E7F8C9380818F7E80836C
:1046D0001092CE0108950F931F93CF93DF930E9402
:1046E000BF230E94C723C8EDD0E088818F778883DD
:1046F00088818068888388818F7D888319BC109227
:10470000CF011092CB011092CD011092CC0100EE9E
:1047100010E0F80180818B7F8083888181608883AD
:1047200042E060E080E00E94CF22E1EEF0E0808194
:104730008E7F8083E2EEF0E08081816080838081E3
:1047400088608083F80180818E7F8083888180618A
:104750008883DF91CF911F910F910895E8EDF0E0EC
:1047600080818F7E8083E7EDF0E0808181608083AF
:1047700084E082BF81E08093CE010C946B23E8ED4E
:10478000F0E080818E7F80831092E2000895109285
:10479000DA001092E10008951F920F920FB60F9267
:1047A00011242F933F934F935F936F937F938F9336
:1047B0009F93AF93BF93EF93FF938091E10082FFAC
:1047C0000BC08091E20082FF07C08091E1008B7FE7
:1047D0008093E1000E94EF1F8091DA0080FF19C0F2
:1047E0008091D80080FF15C08091DA008E7F809381
:1047F000DA008091D90080FF94C080E189BD82E118
:1048000089BD09B400FEFDCF81E08093CF010E94F5
:10481000C81F8091E10080FF19C08091E20080FFF5
:1048200015C08091E2008E7F8093E2008091E200CB
:1048300080618093E2008091D80080628093D800EC
:1048400019BC85E08093CF010E94E51F8091E100B3
:1048500084FF29C08091E20084FF25C080E189BDEA
:1048600082E189BD09B400FEFDCF8091D8008F7D23
:104870008093D8008091E1008F7E8093E100809149
:10488000E2008F7E8093E2008091E200816080935D
:10489000E2008091CB01882309F449C084E0809331
:1048A000CF010E94E91F8091E10083FF29C0809120
:1048B000E20083FF25C08091E100877F8093E100C3
:1048C00082E08093CF011092CB018091E1008E7F36
:1048D0008093E1008091E2008E7F8093E2008091DE
:1048E000E20080618093E20042E060E080E00E94AC
:1048F000CF228091F00088608093F0000E94E11F39
:10490000FF91EF91BF91AF919F918F917F916F91A7
:104910005F914F913F912F910F900FBE0F901F907D
:10492000189519BC1092CF010E94DA1F72CF8091A6
:10493000E30087FD02C081E0B2CF83E0B0CF1F92D9
:104940000F920FB60F9211242F933F934F935F93C3
:104950006F937F938F939F93AF93BF93CF93EF9377
:10496000FF93C091E900CF708091EC001092E900B4
:104970008091F000877F8093F00078940E94DB2480
:104980001092E9008091F00088608093F000C0935D
:10499000E900FF91EF91CF91BF91AF919F918F91DE
:1049A0007F916F915F914F913F912F910F900FBE2B
:1049B0000F901F9018951F93CF93DF93CDB7DEB75D
:1049C000AA970FB6F894DEBF0FBECDBFE0EDF1E0C1
:1049D0008091F100819321E0E83DF207C9F70E9440
:1049E00045208091E80083FF44C08091D0019091E0
:1049F000D1019A3008F03DC0E92FF0E0EE5FFA4DAA
:104A00000C9472260C25322539253225392590251E
:104A1000B225392509261626803889F0823849F5CD
:104A20008091D4018F70873020F58093E9008091C8
:104A3000EB0085FB882780F91092E90006C0809181
:104A4000CC019091CD01911182609091E800977F07
:104A50009093E8008093F1001092F1008091E800BB
:104A60008E772DC0282F2D7F21F48823D1F082301E
:104A700059F18091E80083FF0AC08091E800877FA8
:104A80008093E8008091EB0080628093EB00AA960F
:104A90000FB6F894DEBF0FBECDBFDF91CF911F914F
:104AA00008958091D201813021F7933009F080E0A0
:104AB0008093CD011092E9008091E800877F809378
:104AC000E8000E940323D5CF8091D2018111F2CF5B
:104AD0008091D4018F702FEF280F263050F68093ED
:104AE000E9002091EB0020FFE5CF933031F4809175
:104AF000EB0080628093EB00DDCF9091EB00906142
:104B00009093EB0021E030E001C0220F8A95EAF794
:104B10002093EA001092EA008091EB008860EACFCF
:104B20008111A7CF1091D2011F778091E300807887
:104B3000812B8093E3008091E800877F8093E800D9
:104B40000E9403238091E80080FFFCCF8091E30066
:104B500080688093E30083E0111101C082E08093BC
:104B6000CF0187CF8058823008F083CF8091D20167
:104B70009091D3018C3D23E09207A1F583E08A83D5
:104B80008AE289834FB7F894DE01139620E03EE075
:104B900051E2E32FF0E050935700E49120FF03C06F
:104BA000E295EF703F5FEF708E2F90E0EA30C0F03B
:104BB000C7968D939D932F5F243159F74FBF8091F6
:104BC000E800877F8093E8006AE270E0CE010196FA
:104BD0000E9410228091E8008B778093E80049CFF3
:104BE000C096E7CF6091D4017091D501AE014F5FBF
:104BF0005F4F0E943621BC01892B09F43ACF909176
:104C0000E800977F9093E80089819A810E946F2243
:104C1000E1CF803809F02DCF8091E800877F809325
:104C2000E8008091CB018093F10018CF811121CF52
:104C30009091D201923008F01CCF8091E800877FDC
:104C40008093E8009093CB010E9403238091CB01D5
:104C5000882331F084E08093CF010E94312009CF76
:104C60008091E30087FDF6CF81E0F5CFCF9380916F
:104C7000CF01882399F0C091E900CF708091EC00BA
:104C800080FD0EC080E0C82B1092E9008091E80002
:104C900083FD0E94DB24CF70C093E900CF9108957B
:104CA00080E8F1CF991B79E004C0991F961708F0AE
:104CB000961B881F7A95C9F78095089597FB072E54
:104CC00016F4009407D077FD09D00E94782607FCDF
:104CD00005D03EF4909581959F4F0895709561950C
:104CE0007F4F0895EE0FFF1F0590F491E02D09947A
:104CF000AA1BBB1B51E107C0AA1FBB1FA617B70702
:104D000010F0A61BB70B881F991F5A95A9F780951D
:104D10009095BC01CD010895F999FECF92BD81BD5A
:104D2000F89A992780B50895A8E1B0E042E050E0F4
:104D30000C94B426262FF999FECF92BD81BDF89A26
:104D4000019700B4021639F01FBA20BD0FB6F894CF
:104D5000FA9AF99A0FBE08950196272F0E949B2672
:104D60000C949A26DC01CB01FC01F999FECF06C018
:104D7000F2BDE1BDF89A319600B40D924150504019
:084D8000B8F70895F894FFCF85
:104D88009D012808140A321E941E951F6A1F341F9D
:104D9800FA1E0137920102030405060708090040BC
:104DA8004D36227A092D09F708D50861087A089343
:044DB80008AC08003B
:00000001FF
