:100000000C9426050C946D050C946D050C946D05EF
:100010000C946D050C946D050C946D050C946D0598
:100020000C946D050C946D050C94DF240C94B22592
:100030000C948B180C946D050C946D050C946D0547
:100040000C946D050C946D050C946D050C946D0568
:100050000C946D050C94FF180C946D050C946D05B3
:100060000C946D050C946D050C946D050C946D0548
:100070000C946D050C946D050C946D050C946D0538
:100080000C946D050C946D050C946D050C946D0528
:100090000C946D050C946D050C946D050C946D0518
:1000A0000C946D050C946D050C946D050400040012
:1000B0000400040004000400040004000400040020
:1000C0000400040004000400040004000400040010
:1000D0000400040004000400040004000400040000
:1000E00004000400040004000400040004000400F0
:1000F00004000400040004000400040004000400E0
:1001000004000400040004000400040004000400CF
:1001100004000400040004000400040004000400BF
:10012000040004000400040004000400040044452A
:100130004255473A20656E61626C65642E0A000A7A
:10014000002530313662003A200025303258000A4E
:10015000722F6320303132333435363738394142EB
:10016000434445460A000A002530325820006B659A
:1001700079626F6172645F7265706F72743A2000A9
:100180000A0025303258006B6579626F6172645FD6
:100190007365745F6C65643A2000290A0025750058
:1001A0002F002575005D28002564002000256400CF
:1001B000200025640020002564007C002530325892
:1001C000006D6F7573656B6579205B62746E7C780A
:1001D0002079207620685D287265702F61636C2914
:1001E0003A205B006D6B5F776865656C5F74696D65
:1001F000655F746F5F6D6178203D2025640A006D36
:100200006B5F776865656C5F6D61785F737065655E
:1002100064203D2025640A006D6B5F74696D655F25
:10022000746F5F6D6178203D2025640A006D6B5FFF
:100230006D61785F7370656564203D2025640A00F8
:100240006D6B5F696E74657276616C203D2025640C
:100250000A006D6B5F64656C6179203D2025640A3E
:10026000006D6B5F776865656C5F74696D655F7461
:100270006F5F6D6178203D2025640A006D6B5F77AC
:100280006865656C5F6D61785F7370656564203D5E
:100290002025640A006D6B5F74696D655F746F5F24
:1002A0006D6178203D2025640A006D6B5F6D61787B
:1002B0005F7370656564203D2025640A006D6B5F87
:1002C000696E74657276616C203D2025640A006D4C
:1002D0006B5F64656C6179203D2025640A000A002B
:1002E000257500363A20776865656C5F74696D65C1
:1002F0005F746F5F6D61783A20000A0025750035E4
:100300003A20776865656C5F6D61785F73706565CD
:10031000643A20000A00257500343A2074696D653E
:100320005F746F5F6D61783A20000A0025750033B5
:100330003A206D61785F73706565643A20000A0049
:10034000257500323A20696E74657276616C286D8D
:1003500073293A20000A00257500313A2064656C43
:100360006179282A31306D73293A20000A092D203D
:1003700056616C756573202D0A004D3E004D256455
:100380003E20003F007365742064656661756C747F
:100390000A00433E200077686572652064656C74CE
:1003A000613A20637572736F723D25642C20776803
:1003B00065656C3D25640A53656520687474703A00
:1003C0002F2F656E2E77696B6970656469612E6F7A
:1003D00072672F77696B692F4D6F7573655F6B65FA
:1003E00079730A000A092D204D6F7573656B657965
:1003F000202D0A4553432F713A09717569740A31EA
:100400003A0964656C6179282A31306D73290A32A2
:100410003A09696E74657276616C286D73290A33C6
:100420003A096D61785F73706565640A343A0974DE
:10043000696D655F746F5F6D61780A353A09776839
:1004400065656C5F6D61785F73706565640A363AE7
:1004500009776865656C5F74696D655F746F5F6D62
:1004600061780A0A703A097072696E742076616C5C
:100470007565730A643A097365742064656661750D
:100480006C74730A75703A092B310A646F776E3A8F
:10049000092D310A706775703A092B31300A70677F
:1004A000646F776E3A092D31300A0A73706565649E
:1004B000203D2064656C7461202A206D61785F7333
:1004C00070656564202A2028726570656174202F2C
:1004D0002074696D655F746F5F6D6178290A003FF4
:1004E000004D3E2000433E20004C25640A00746904
:1004F0006D65725F72656164333228293A20253058
:10050000346C580A006B6579626F6172645F69646C
:100510006C653A2025580A006B6579626F617264D8
:100520005F70726F746F636F6C3A2025580A0068B1
:100530006F73745F6B6579626F6172645F6C656421
:100540007328293A2025580A000A092D205374617E
:10055000747573202D0A004743433A20372E332EFB
:1005600030204156522D4C4942433A20322E302EF3
:1005700030204156525F415243483A2061767235ED
:100580000A004F5054494F4E533A204C5546412093
:100590004D4F5553454B45592045585452414B45B5
:1005A0005920434F4E534F4C4520434F4D4D414EE4
:1005B0004420343039360A004255494C443A20220E
:1005C000302E362E31392D352D6736343262663075
:1005D00022202830313A34373A3535204A756E209A
:1005E00020312032303138290A005649443A20302F
:1005F000784645454428596F7529205049443A208A
:1006000030783030303028657A5F6B6579626F61A1
:10061000726429205645523A203078303030310A01
:1006200000444553433A204120637573746F6D2035
:100630006B6579626F6172640A000A092D20566544
:100640007273696F6E202D0A000A092D20436F6EA8
:10065000736F6C65202D0A4553432F713A097175EC
:1006600069740A6D3A096D6F7573656B65790A0077
:100670000A092D204D61676963202D0A443A094417
:1006800065627567204D65737361676520546F6798
:10069000676C650A583A094D61747269782044653F
:1006A000627567204D6F646520546F67676C6520C5
:1006B0002D2053686F77206B657970726573736551
:1006C0007320696E206D6174726978206772696445
:1006D0000A4B3A094B6579626F6172642044656226
:1006E000756720546F67676C65202D2053686F779E
:1006F000206B65797072657373207265706F7274A8
:100700000A4D3A094465627567204D6F757365201F
:10071000546F67676C650A563A0956657273696F5C
:100720006E0A533A095374617475730A433A094166
:100730006374697661746520436F6E736F6C6520B6
:100740004D6F64650A46312D4631303A0953776959
:1007500074636820746F204C6179657220302D3984
:100760002028463130203D204C30290A302D393A9E
:100770000953776974636820746F204C61796572DE
:1007800020302D390A4553433A0953776974636819
:1007900020746F204C6179657220302028616C7460
:1007A00065726E617465206B65792031290A475244
:1007B0004156453A0953776974636820746F204C39
:1007C0006179657220302028616C7465726E617485
:1007D00065206B65792032290A50415553453A0905
:1007E0004A756D7020746F20426F6F746C6F616416
:1007F000657220285265736574290A003F000A6DEE
:100800006F7573653A206F66660A000A6D6F7573BF
:10081000653A206F6E0A000A6B6579626F617264D7
:100820003A206F66660A000A6B6579626F617264CE
:100830003A206F6E0A000A6D61747269783A206F0F
:1008400066660A000A6D61747269783A206F6E0AF2
:10085000000A64656275673A206F66660A000A647A
:10086000656275673A206F6E0A000A0A4A756D70F4
:10087000696E6720746F20626F6F746C6F6164655E
:10088000722E2E2E2000433E20005B735D004B65D0
:1008900079626F6172642073746172742E0A005BF6
:1008A000575D005B535D005B525D005B445D005B28
:1008B000435D00040330000000180365007A005F08
:1008C000006B006500790062006F006100720064D7
:1008D000000000080359006F0075000000040309C0
:1008E0000409027400040100A0FA090400000103D5
:1008F00001010009211101000122400007058103C7
:1009000008000A0904010001030102000921110184
:100910000001224D000705820308000A09040200B5
:100920000103000000092111010001223600070522
:10093000830308000A0904030002030000000921E0
:100940001101000122220007058403200001070590
:1009500004032000011201100100000008EDFE0058
:10096000000100010203010631FF0974A1010975AC
:10097000150026FF009520750881020976150026CE
:10098000FF00952075089102C005010980A101852D
:10099000021601002603001A81002A8300751095B3
:1009A000018100C0050C0901A10185031601002683
:1009B0009C021A01002A9C02751095018100C00555
:1009C000010902A1010901A1000509190129051563
:1009D00000250195057501810295017503810105C9
:1009E00001093009311581257F95027508810609B5
:1009F000381581257F950175088106050C0A380296
:100A00001581257F950175088106C0C0050109067D
:100A1000A101050719E029E71500250195087501D1
:100A200081029501750881010508190129059505BF
:100A3000750191029501750391010507190029FFC0
:100A4000150026FF00950675088100C011241FBE01
:100A5000CFEFDAE0DEBFCDBF04B603FE27C0809142
:100A6000000290910102A0910202B091030287302E
:100A7000904BA740B04BD1F41092000210920102AB
:100A8000109202021092030214BE84B7877F84BFC3
:100A90000FB6F894A89580916000886180936000FB
:100AA000109260000FBEE0E0F8E3099511E0A0E0CD
:100AB000B1E0EEEAFFE402C005900D92A434B10764
:100AC000D9F722E0A4E4B1E001C01D92A030B20742
:100AD000E1F70E9402220C94D5270C940000FF93AA
:100AE000EF93E0914401F0914501309709F00995A9
:100AF000EF91FF910895FC018591803011F0EFDFB7
:100B0000FBCF0895FF27E0E230E247FF0CC041959C
:100B100097FF09C0EDE26095709580959095611DF5
:100B2000711D811D911D27FF02C0219530E350E208
:100B3000AA27660F771F881F991FAA1FA41710F0F6
:100B4000A41B63955A95A9F7AA3008F0A95FA05D88
:100B5000AF93F395611571058105910541F7ED326C
:100B600011F4EF93F395F21718F43F93F395FBCF3D
:100B70008F91B5DFFA95E1F70895E991F9918591A3
:100B8000803021F0853219F0AADFF9CF089520E0F6
:100B9000E89455915532C1F3503311F4689455914E
:100BA0005A3348F4505390F3220F022E220F220F93
:100BB000200D250FF4CF0EF421958991999153368C
:100BC00019F3533729F1533559F1BC018827992777
:100BD000E8945C3621F48991999168945591543642
:100BE00039F446EF7EF077FF0DC08FEF9FEF0AC01C
:100BF00055374AE039F0583540E121F0523642E0AD
:100C000009F00895FF93EF937DDFEF91FF91B7CF48
:100C1000FF93EF93FC0181918030B9F360DFFBCF4C
:100C2000FF93EF9368DFF1CFDF93CF93CDB7DEB7BC
:100C30002596A3DFCF91DF9108950C9435060C948F
:100C400036060C9437060C943906611107C0FC0176
:100C50008281882331F085EE0E94B30D90E080E020
:100C6000089585EE0E948E0EF9CF0895089581E0D3
:100C70000895089581E008950E94B2112FEF84E352
:100C80009CE0215080409040E1F700C000000C94AF
:100C900025190F931F93CF93DF938C01FC01C08123
:100CA000D181CE010E949F16BE010E94CE07EC01A9
:100CB000B8010E942106882309F452C0B801CE0170
:100CC0000E94320A882309F44BC0C531FCE5DF07D6
:100CD00009F43DC1B0F4C130ECE5DE0709F446C0CB
:100CE00008F05AC0C115DC45B1F181E080934B0199
:100CF00080934C01C801DF91CF911F910F910C940B
:100D00003A06C33DECE5DE0709F406C1B8F4C13D7F
:100D10008CE5D80709F4C4C0C23DDC4531F7F801C1
:100D20008281882309F4E3C010924C010E94BD180F
:100D300090934A018093490180E2BFC0C63DFCE523
:100D4000DF0711F1C73DDC4581F6F8018281882378
:100D500039F082E01EC0F801828181110E943C06B8
:100D600080E0DF91CF911F910F910895F80182816A
:100D70008823B1F38091D00181608093D0018EE20D
:100D800091E00E947B05ECCFF8018281882341F33A
:100D900080E00E94A722E4CFF8018281882309F431
:100DA000A9CF0E94E517811102C00E94CB170E94B3
:100DB000F81790E09093F2018093F101FE01E35067
:100DC000FC458091F1018160E231F105C8F4E55103
:100DD000F94F0C948527FD0609070D071107150724
:100DE00019071D072107250729072D073107350793
:100DF00039073D074107450749078091F1018260A6
:100E00008093F1018091F1010E94FC170E94B211C0
:100E1000A7CF8091F1018460F3CF8091F1018860C8
:100E2000EFCF8091F1018061EBCF8091F101806281
:100E3000E7CF8091F1018064E3CF8091F101806878
:100E4000DFCF8091F1018460EACF8091F1018E7F44
:100E5000D7CF8091F1018D7FD3CF8091F1018B7F2E
:100E6000CFCF8091F101877FCBCF8091F1018F7E31
:100E7000C7CF8091F1018F7DC3CF8091F1018F7B2E
:100E8000BFCF8091F1018F77BBCF8091F1018B7F34
:100E9000EACF9091F101892F97FB87F98058B0CF65
:100EA000F8018281882361F010924B010E94BD18E5
:100EB000909348018093470182E00E94DD0E50CF5D
:100EC00080914B0181110FC08091470190914801A1
:100ED0000E94D518883C910530F486E20E94B30D3B
:100EE00086E20E948E0E82E00E94E40E39CF80914D
:100EF0004C0181110FC08091490190914A010E94DB
:100F0000D518883C910530F487E20E94B30D87E242
:100F10000E948E0E80E2E8CFF8018281811104CF19
:100F200080914C018111F6CF8091490190914A0145
:100F30000E94D518883C910568F780E20E94E40E73
:100F400088E20E94B30D88E20E948E0E09CF0E94B3
:100F50006517F8019281992381F08A7A91E009F46A
:100F600090E090934601811106C089E20E94EE163E
:100F70000E943217F5CE85E3F9CF809146018111A9
:100F800004C089E20E94F516F3CF85E3FBCF0C94F1
:100F90001D060C941F060C9423060895972F70E0ED
:100FA0002DE0929F600D711D1124FB0191E4899F3A
:100FB000E00DF11D1124EE0FFF1FE455FF4F859149
:100FC00094910895FC01EE0FFF1FE455FF4F8591AA
:100FD00094910895CF93DF930E94CE070E948E09CB
:100FE000EC018115904508F043C0C11580E4D80795
:100FF00008F00AC1C83ED10528F5C03ED10508F069
:101000009EC0C83AD10580F4C53AD10508F08DC01C
:10101000C130D10509F493C020F0C430D10508F0E7
:101020008EC0D0E0C0E08BC0CD3BD10508F48BC0B2
:10103000CE01805C9109C03CD10598F30E94E20783
:10104000EC017DC0C11520E2D20750F4C11581E04A
:10105000D80708F074C0C03FD10518F3D0656FC041
:10106000C11520E3D20708F0C5C0CE019F70E6CFBE
:10107000C11585E5D80760F5C11524E5D20708F04C
:10108000F1C0C11582E5D80750F4C11521E5D2079A
:1010900008F4BDC0DC2FCC27C16FD06A50C09C2F94
:1010A000969596959E0123703327C115D34508F078
:1010B000CAC0C1E0D0E002C0CC0FDD1F2A95E2F724
:1010C00020E2929FC0011124C82BD92BDC6837C0C5
:1010D000C11529E5D20780F4C11588E5D80708F0C5
:1010E000C6C0C11526E5D20708F09BCFDC2FCC2760
:1010F000CC27DF71D06223C0C1158AE5D80708F478
:10110000BBC0CE0190568115904208F08ACF8D2F3A
:101110008F710E940E0ADD27D06290E0982F8827F9
:1011200088279F71C82BD92B0AC0C53AD10509F46D
:10113000B0C0C63AD10509F4AFC0C3E8D0E4CE01CF
:10114000DF91CF910895C83AD10509F4A8C0C93AF2
:10115000D10509F4A7C0CA3AD10509F4A6C0CB3A13
:10116000D10509F4A5C0CC3AD10509F4A4C0CB3B04
:10117000D10509F4A3C0CC3BD10509F4A2C0CD3AF6
:10118000D10509F4A1C0C03BD10509F4A0C0CE3AF5
:10119000D10509F49FC0CF3AD10509F49EC0C13BE7
:1011A000D10509F49DC0C23BD10509F49CC0C33BE5
:1011B000D10509F49BC0C43BD10509F49AC0C53BD5
:1011C000D10509F499C0C63BD10509F498C0C73BC5
:1011D000D10509F497C0C83BD10509F496C0C93BB5
:1011E000D10509F495C0CA3BD10509F094C0CAE203
:1011F000D6E4A5CFCE019927D3FF03C0EC01D86C6C
:101200009ECFEC01D06C9BCFDF70D06A98CFCE011F
:10121000E4E096958795EA95E1F783709C2F9370AB
:1012200021E030E002C0220F331F9A95E2F73C68BC
:10123000382BC695C695C37080E2C89FE001112483
:10124000C22BD32B7CCFC1E0D0E002C0CC0FDD1F7E
:101250002A95E2F720E2929FC0011124C82BD92BD6
:10126000DA686DCFDC2FCC27C46FD06A68CFDC2F53
:10127000CC27C06FD06A63CFCE0134E096958795B6
:101280003A95E1F78F70CF70C06ED0E0D06AD82B5E
:1012900056CFC1E8D0E453CFC2E8D0E450CFC2EE7D
:1012A000D4E44DCFC9EED4E44ACFCAEED4E447CF5C
:1012B000C5EBD4E444CFC6EBD4E441CFC3EBD4E4D4
:1012C0003ECFC4EBD4E43BCFC7EBD4E438CFCCEC77
:1012D000D4E435CFCDECD4E432CFC3E8D5E42FCF7E
:1012E000CAE8D5E42CCFC2E9D5E429CFC4E9D5E4D6
:1012F00026CFC1E2D6E423CFC3E2D6E420CFC4E2B6
:10130000D6E41DCFC5E2D6E41ACFC6E2D6E417CFA5
:10131000C7E2D6E414CFC0E0D4E411CF82389105FF
:1013200049F1B0F48133910509F45CC048F4893285
:10133000910509F452C08A32910509F458C0089504
:101340008533910509F444C08933910599F00895D6
:10135000833E910531F138F4803E910591F0823E53
:101360009105B1F00895863E910511F1873E9105F2
:1013700041F108952091F1012370C9F080EE90E0D1
:1013800008952091F10120FF12C089E390E00895B3
:101390002091F10122FF0BC024FF2EC090E080E0DD
:1013A00008952091F10122FD2AC024FDF7CF089570
:1013B0002091F10123FFFBCF24FDF0CF87EE90E0D9
:1013C00008952091F10123FFF0CF86EE90E008957B
:1013D0002091F10125FD16C008952091F10125FD10
:1013E00014C008952091F10126FD12C008952091A6
:1013F000F10126FD10C0089583EE90E0089582EE7D
:1014000090E0089589E290E0089585E390E00895E2
:101410008AE290E0089581E390E0C9CF9091F101D4
:1014200092FF06C0282F2871283069F4877F8460D6
:1014300093FF06C0282F2871283161F4877E8461CC
:1014400094FD877E0895282F2471243089F78B7F9F
:101450008860EECF282F2471243191F78B7E88612C
:10146000EFCF08950F931F93CF938C01FB018281DF
:10147000811106C0C1E08C2FCF911F910F9108956B
:10148000C0915A01C11125C006311C4599F70E942F
:10149000310A81E080935A010E94BD18909359014E
:1014A0008093580110924D0110924F0110924E01FD
:1014B000109251011092500110925301109252015A
:1014C000109255011092540110925701109256013A
:1014D000D2CF80915801909159010E94D518883C33
:1014E000910540F680914D01E82FF0E0EE0FFF1FCF
:1014F000E25BFE4F118300838F5F80934D01C0E05C
:10150000BACFCF93DF9385B7806885BF85B78068F2
:1015100085BFA0E2B1E045E251E0C1E0D0E08D91AD
:10152000E82FE295EF70F0E061A18F709E0101C09D
:10153000220F8A95EAF7922F9095962391A382A184
:10154000822B82A34A175B0751F7A3E1B1E061E068
:1015500070E08D91E82FE295EF70F0E041A18F707F
:101560009B0101C0220F8A95EAF7922F9095942350
:1015700091A382A1822B82A381E0A032B80749F710
:10158000109266011092650110925C0110925B014D
:10159000109268011092670110925E0110925D0135
:1015A00010926A01109269011092600110925F011D
:1015B00010926C0110926B01109262011092610105
:1015C00010926E0110926D011092640110926301ED
:1015D000DF91CF910C94C7076F927F929F92AF9249
:1015E000BF92CF92DF92EF92FF920F931F93CF9310
:1015F000DF93CBE5D1E000E211E0EE24E394F12C9F
:10160000BB24B394C880D98019821882D8018D91E7
:101610008D01E82FE295EF70F0E091A18F709701B6
:1016200001C0220F8A95EAF7892F822B81A382A11C
:10163000A22EA0948A2182A3B0EABA95F1F783E1A1
:10164000682E81E0782E90E080E0D3017D913D010D
:10165000472F42954F7050E0DA0190969C90488158
:1016600059817F70D70102C0AA0FBB1F7A95E2F79C
:10167000BD01692109F06FC0B701082E02C0660FD5
:10168000771F0A94E2F7462B572B5983488301961C
:101690008D309105D1F681A18A2181A382A1282BC9
:1016A00022A388819981C816D90641F0B0926F01B2
:1016B0000E94BD1890937101809370012296B1E051
:1016C00005321B0709F09ECF80916F01882391F1AD
:1016D00080917001909171010E94D518069750F188
:1016E00080915B0190915C0190936601809365010C
:1016F00080915D0190915E019093680180936701F4
:1017000080915F019091600190936A0180936901DB
:10171000809161019091620190936C0180936B01C3
:10172000809163019091640190936E0180936D01AB
:1017300010926F010E94C90781E0DF91CF911F9144
:101740000F91FF90EF90DF90CF90BF90AF909F9060
:101750007F906F90089570E060E095CFE82FF0E003
:10176000EE0FFF1FEB59FE4F808191810895CF92BC
:10177000DF92EF92FF920F931F93CF93DF938FE44B
:1017800091E00E947B0585E6E82E81E0F82ED0E00E
:10179000C0E09AE4C92E91E0D92E01E411E0DF9374
:1017A000CF93DF92CF920E94140687E491E00E94CB
:1017B0007B05F701819191917F010E94BE179F9354
:1017C0008F931F930F930E9414068FE391E00E9462
:1017D0007B0521968DB79EB708960FB6F8949EBFED
:1017E0000FBE8DBFC530D105D1F6DF91CF911F91CE
:1017F0000F91FF90EF90DF90CF9008959093770135
:10180000809376010895E0917601F0917701309709
:1018100021F00190F081E02D099480E00895EF928D
:10182000FF920F931F93CF93DF938C01E09176018A
:10183000F09177013097C1F10280F381E02D099595
:101840008091D00182FF30C080FF04C08EE691E01D
:101850000E947B05D0E0C0E088E6E82E81E0F82E0B
:101860008091D00180FF0EC0F801EC0FFD1F808138
:101870001F928F93FF92EF920E9414060F900F9089
:101880000F900F902196C830D10551F78091D0016B
:1018900080FF0AC086E691E0DF91CF911F910F9102
:1018A000FF90EF900C947B05DF91CF911F910F91EA
:1018B000FF90EF900895E0917601F09177013097D5
:1018C00021F00480F581E02D0994089520917401A0
:1018D000309175012817390771F090937501809345
:1018E0007401E0917601F0917701309721F0068044
:1018F000F781E02D099408952091720130917301D0
:101900002817390771F09093730180937201E09169
:101910007601F0917701309721F00084F185E02D78
:101920000994089508950C94920C81E008950E9402
:10193000B4180E94810A0C944919CF93C82F809142
:10194000D00182FF1EC080FF04C087E891E00E94A2
:101950007B058091D00180FF0CC01F92CF9382E85D
:1019600091E09F938F930E9414060F900F900F9019
:101970000F908091D00180FF04C080E891E00E9428
:101980007B058C2FCF910C94CB075F926F927F9247
:101990008F929F92AF92BF92CF92DF92EF92FF927F
:1019A0000F931F93CF93DF93CDB7DEB72A970FB670
:1019B000F894DEBF0FBECDBF0E94EC0A0E94950CCA
:1019C000882309F47AC099E7A92E91E0B92E10E096
:1019D00000E088248394912C502E802F0E94AE0B1F
:1019E0007C01F501C190D1905F01C816D90609F4B8
:1019F0005EC08091D00181FD0E94B70B90E080E035
:101A0000CE24DF243401082E02C0660C771C0A9411
:101A1000E2F7960126213721232B09F443C08E8358
:101A20005F82E620F72081E0EF2809F480E08887D4
:101A30000E94BD188160782F9A8789874E815F81C7
:101A400068858A850E94840D000F111FF801E758F0
:101A5000FE4F8081918168267926718260820E9482
:101A60005E1B0E94030C909178018917B9F10E94C6
:101A7000030C809378012A960FB6F894DEBF0FBE50
:101A8000CDBFDF91CF911F910F91FF90EF90DF902D
:101A9000CF90BF90AF909F908F907F906F905F900E
:101AA0000C949D0C01968D30910509F0ABCF0F5F22
:101AB0001F4F0530110509F08FCF8FEF89838A837F
:101AC0001B820E94BD188160782F9D838C83498181
:101AD0005A816B818D810E94840DC1CF2A960FB6E9
:101AE000F894DEBF0FBECDBFDF91CF911F910F9154
:101AF000FF90EF90DF90CF90BF90AF909F908F902E
:101B00007F906F905F900895CF93DF93CDB7DEB74E
:101B10002B970FB6F894DEBF0FBECDBF4F8358870B
:101B200069877A878B871E821D8285E0FE01379642
:101B3000DE01119601900D928A95E1F749815A8153
:101B40006B817C818D819E812B960FB6F894DEBFD0
:101B50000FBECDBFDF91CF910C947214FC01808138
:101B600091810C94E116CF93C82F882309F4D4C037
:101B70008238C1F40E94030C81FDCEC089E30E942B
:101B8000EE160E9432172FEF81EE94E02150804034
:101B90009040E1F700C0000089E30E94F516CF9164
:101BA0000C9432178338A1F40E94030C80FDB4C05A
:101BB00083E50E94EE160E9432172FEF81EE94E02B
:101BC000215080409040E1F700C0000083E5E5CF60
:101BD0008438A1F40E94030C82FD9EC087E40E9419
:101BE000EE160E9432172FEF81EE94E021508040D4
:101BF0009040E1F700C0000087E4CFCF8CEF8C0F5E
:101C0000813A48F48C2F0E945F1E811185C08C2F71
:101C10000E94EE16C4CF80E28C0F883048F4C77063
:101C200081E001C0880FCA95EAF70E946817B7CF14
:101C30008BE58C0F833068F481E890E0C53A31F091
:101C400083E890E0C63A11F482E890E0CF910C94DA
:101C5000660C88E58C0F853108F05EC082EE90E05E
:101C6000C83A09F456C089EE90E0C93A09F451C067
:101C70008AEE90E0CA3A09F44CC085EB90E0CB3A8A
:101C800009F447C086EB90E0CC3A09F442C083EBFC
:101C900090E0CB3BF1F184EB90E0CC3BD1F187EBD2
:101CA00090E0CD3AB1F18CEC90E0C03B91F18DEC3D
:101CB00090E0CE3A71F183E891E0CF3A51F18AE8B1
:101CC00091E0C13B31F182E991E0C23B11F184E93D
:101CD00091E0C33BF1F081E292E0C43BD1F083E2BA
:101CE00092E0C53BB1F084E292E0C63B91F085E220
:101CF00092E0C73B71F086E292E0C83B51F087E288
:101D000092E0C93B31F090E080E0CA3B11F48AE2F6
:101D100092E0CF910C947C0CCF910895882309F424
:101D20004BC0823871F40E94030C81FF45C089E3E7
:101D30000E94EE160E94321789E30E94F5160C9459
:101D40003217833859F40E94030C80FF35C083E5B5
:101D50000E94EE160E94321783E5EFCF843859F4C3
:101D60000E94030C82FF28C087E40E94EE160E94A6
:101D7000321787E4E2CF9CEF980F913AF0F290E2AD
:101D8000980F983050F4877091E001C0990F8A95B0
:101D9000EAF7892F0E946E17D2CF9BE5980F9330F8
:101DA00020F490E080E00C94660C885A853120F491
:101DB00090E080E00C947C0C0895882321F00E9430
:101DC00068170C9432170895882321F00E946E172B
:101DD0000C94321708958F929F92AF92BF92DF9228
:101DE000EF92FF920F931F93CF93DF937C01D62F37
:101DF000C72FFC01058102950F70128111110E94FD
:101E000087170E942B17D82E882371F0112331F1E8
:101E100080E28D0F883010F182E00E9415170E9439
:101E20002B1791E0D82ED926BC2EB2949FE0B92270
:101E3000EB2DF0E0E25EF04F0C948527300F300F71
:101E4000800F800FC20FEA0FC90FC90F2C10C90FE6
:101E5000C710C7105111C90FC90F5A11D12CE4CFA7
:101E60000C2F0F70C07F11F00295007F1123A9F095
:101E7000002359F080E28D0F883010F0D11109C095
:101E8000802F0E9468170E9432178D2F0E94B30D79
:101E900014C0802F0E947917F6CF8D2F0E948E0ECE
:101EA000002359F080E28D0F883010F0D11124C04A
:101EB000802F0E946E170E943217DD2009F401C2A4
:101EC0000E94081780FDFDC1F70112820E940217CF
:101ED0000E940316C7010E946D110E940217DF9134
:101EE000CF911F910F91FF90EF90DF90BF90AF9037
:101EF0009F908F900C942416802F0E947F17DBCF29
:101F0000FC2FFF70BF2EC07FC03219F0B29480EF5B
:101F1000B822DD2369F0D13029F1112369F10023C2
:101F200059F0F701858180FFB0CF8F70858304C0A1
:101F3000112361F0011104C08B2D0E94DD0EBDCF75
:101F40008B2D0130D1F70E949B17B7CF011106C02E
:101F50000E949E178B2D0E94E40EAFCF013009F432
:101F6000ACCFF6CF112321F0063008F0A6CFE4CF96
:101F7000053008F0A2CFEECF002361F38D2F0E9431
:101F80008E0E9BCF8C2F86958695837079F081304D
:101F9000B9F098E0B91609F49BC0B91608F48DCFD2
:101FA00086EF8B0D823008F493C087CF8D2F9C2F46
:101FB0009370111102C090E080E00E94660C7DCF0A
:101FC0008D2F9C2F9370111102C090E080E00E9431
:101FD0007C0C73CF112309F1D53F99F0D63FB9F0AE
:101FE000D43F49F48091EB019091EC018160909392
:101FF000EC018093EB018D2F0E94E5190E94D11A0C
:102000005CCF8091EB019091EC018260F0CF8091E8
:10201000EB019091EC018460EACFD53F89F0D63F87
:10202000A9F0D43F49F48091EB019091EC018E7FAF
:102030009093EC018093EB018D2F0E944D1ADECF1F
:102040008091EB019091EC018D7FF2CF8091EB01BB
:102050009091EC018B7FECCF8C2F837009F04BC0FB
:10206000111136C02D2F229526952770220F220F91
:102070006D2F6F70862E912CB12CA12C022E04C0D6
:10208000880C991CAA1CBB1C0A94D2F760E070E073
:10209000CB01D4FF0FC06FE070E080E090E004C09F
:1020A000660F771F881F991F2A95D2F76095709544
:1020B00080959095C695C695C370C23071F0A0F416
:1020C000682979298A299B29C13091F00E94B51588
:1020D0000E94030C0E94CB07F0CE682979298A2937
:1020E0009B290E94C715F4CF0E94B515C501B40104
:1020F0000E94A315EDCF8695112311F08C2F8170CE
:10210000882331F32D2F229526952770220F220F39
:102110006D2F6F70862E912CB12CA12C022E04C035
:10212000880C991CAA1CBB1C0A94D2F760E070E0D2
:10213000CB01D4FF0FC06FE070E080E090E004C0FE
:10214000660F771F881F991F2A95D2F760957095A3
:1021500080959095C695C695C370C23051F080F4B5
:10216000682979298A299B29C13071F00E947A1641
:10217000AFCF682979298A299B290E948C16A8CF7C
:102180000E947A16C501B4010E946816A1CFE0E250
:10219000ED0FE53108F066C0F0E0EF52FF4E0C9411
:1021A0008527E610E610E610E610E610E610E610C9
:1021B000E610E610E610E610E610E610E610E6106F
:1021C000E610F71005110C1113111D11DF708C2F83
:1021D0008F71112331F00E9403168D2F0E94DD0EA6
:1021E000D8CE0E9424168D2F0E94E40ED2CE112349
:1021F00041F0053008F0CDCE8C2F8F710E9447162C
:10220000C8CE063008F0C5CEF7CF8C2F8F711123C2
:1022100039F00E940316BDCE8C2F8F711123C9F3A4
:102220000E942416B6CE112329F08C2F8F710E94A4
:10223000EE15AFCE0E94E915ACCE112349F0CF7157
:102240008C2F0E94031663E08C2F0E940C17A1CEE6
:1022500081E00E941517023008F49BCE82E00E94B4
:10226000151797CE112349F0002321F08D2F0E94DE
:10227000B30D8FCE8C2F8F71CCCF002379F0D93353
:1022800049F4FFEF27EE83E0F15020408040E1F772
:1022900000C000008D2F0E948E0E7BCE8C2F8F7180
:1022A000BFCF4C2F4F706D2FC7010E9425060E9493
:1022B0001B1503CE4C2F4F706D2FC7010E94CD0709
:1022C000FCCDDF91CF911F910F91FF90EF90DF90A8
:1022D000BF90AF909F908F9008950F931F93CF93CF
:1022E000DF93EC01988189812B813C81232B39F08C
:1022F0008F3F19F481E09F3F19F080E001C081E039
:1023000080FD17C0CE010E944906882391F06881A4
:1023100079818A810E94EB168C010E949E160E9490
:10232000A015B801CE01DF91CF911F910F910C94B0
:10233000EB0EDF91CF911F910F9108950E948717A7
:102340000E9498170E94FC160E9432170E94E91BF7
:102350000E94D11A90E080E00E94660C90E080E03C
:102360000C947C0C0E9476170C949E110E94E1162E
:10237000E92FE295EF70E250EE30E0F4F0E0ED533B
:10238000FE4E0C948527D111D111DA11DA11DC112E
:10239000DA11DA11DA11D111D111E111DA11DA11F0
:1023A000E111803F19F020F4803E20F481E008958F
:1023B000843FE1F380E00895803EC0F3813FD1F790
:1023C000F5CF93FB882780F90895CF93DF9300D052
:1023D00000D01F92CDB7DEB70F900F900F900F90E7
:1023E0000F90DF91CF910895CF93DF9300D000D06D
:1023F00000D0CDB7DEB726960FB6F894DEBF0FBE7D
:10240000CDBFDF91CF9108951F93CF93DF93C091FC
:10241000830116E0809184018C1304C0DF91CF9179
:102420001F910895D0E01C9FF0011D9FF00D112415
:10243000EB57FE4F40815181628173818481958188
:102440000E94F4112196C770E5CF4091B5015091DB
:10245000B6016091B7017091B8018091B901909176
:10246000BA010C94F4111F93CF93DF938091BA01BA
:10247000807FD1F48091B7018823B1F080918301EE
:10248000D0918401B091B501C091B6014091B801DD
:102490005091B901A1E0BF3F09F0A0E0BA016095F9
:1024A000709516E0D81304C0DF91CF911F91089565
:1024B00021E04115510521F02A2FCF3F09F020E0FE
:1024C00090E020FD38C0189FF001199FF00D1124F5
:1024D000EB57FE4F21812C132EC020812B132BC0D4
:1024E0002281211128C0238134812417350700F16E
:1024F000241B350B283C3105F0F42091BA012F70D4
:1025000020612093BA0126E0289FF001299FF00D59
:102510001124E657FE4F80818F708061808385EBA8
:1025200091E00E946D11DF91CF911F910C940412E4
:10253000260F371FDFCF01968770B4CFAF92BF92BF
:10254000CF92DF92EF92FF920F931F93CF93DF937F
:10255000CDB7DEB761970FB6F894DEBF0FBECDBF23
:102560008C0185E0F801DE011D9601900D928A959F
:10257000E1F7D8014C9111965C9111971296EC906D
:102580003091B5016091B6018091B8019091B90187
:1025900021E0009731F06F3F19F421E03F3F09F04F
:1025A00020E0B22FB170BB2E20FD80C1F801C380A6
:1025B000D480A090B701AA2009F427C1C816D90673
:1025C000D0F1D601A81BB90BCD01FF24F394883CB0
:1025D000910508F0F12C8091BA01982F907FFF208F
:1025E00009F4CEC0911187C0FE2C651329C03413A5
:1025F00027C0E11025C08F7080618093BA010E94CE
:10260000251285EB91E00E946D118091BA01F801CD
:1026100085838F2D61960FB6F894DEBF0FBECDBFB8
:10262000DF91CF911F910F91FF90EF90DF90CF90AE
:10263000BF90AF900895809590958C0D9D1DC5CF4E
:1026400081E0CD2831F05F3F19F481E04F3F09F080
:1026500080E080FD24C081E08E25F82FF170DF2E10
:1026600080FF3FC0809183012091840136E0821376
:1026700018C04D875E878D859E850E94E116292FA3
:1026800022952F70223008F1243030F59F7009F127
:10269000D80115969C91907FE1F4FB2CBACF80E095
:1026A000DCCF90E0389FF001399FF00D1124EB57FB
:1026B000FE4F6181561306C06081461303C06281DC
:1026C0006E110FC001968770D2CF9F7011F08823D2
:1026D00021F3805E883008F3C8010E946D11BD2C83
:1026E000DCCFEE2009F495CF8091BA018160809310
:1026F000BA01F12C8ECF651314C0341312C0E1104F
:1027000010C0F8018583C8010E946D1186E0F801B0
:10271000A5EBB1E001900D928A95E1F70E94251298
:1027200078CF4D875E878D859E850E94B611882360
:1027300019F1EE2009F18091BA01803270F02091F8
:10274000B5013091B60138872F831986DB86CA869A
:102750008C87CE0107960E946D1186E0F801A5EBEB
:10276000B1E001900D928A95E1F70E9433120E9428
:102770002512FF24F3944DCFC8010E946D11F9CFAB
:10278000911113C07C2DD98AC88A6E2D89890E9427
:10279000E51185EB91E00E946D1186E0E5EBF1E03B
:1027A000DF011D928A95E9F7B9CF651312C0341382
:1027B00010C0E1100EC0F8018583C8010E946D11A0
:1027C000E5EBF1E086E0DF011D928A95E9F7FA2C4E
:1027D00020CF4D875E878D859E850E94B611882308
:1027E00059F2EE2049F28091BA01803208F4B5CF57
:1027F0002091B5013091B6013A8329831B82DD8295
:10280000CC828E83CE010196A6CFC816D90638F1A8
:10281000F601E81BF90BCF01F12C883C910508F07B
:102820003DC0FE2CEE2009F4A7CF651326C034135B
:1028300024C08091BA0180FD17C0982F907FA1F02D
:10284000D80115968C931597903F09F45CCF982F7B
:10285000907F905F8F70892B15968C9354CF8095C5
:1028600090958C0D9D1DD8CF86E0F801A5EBB1E0C9
:1028700001900D928A95E1F7CCCE4D875E878D85CC
:102880009E850E94B611811168CF8091BA01816046
:102890008093BA01C8010E946D11BBCE7C2DD98AEC
:1028A000C88A6E2D89890E94E51177CFEE2009F440
:1028B00063CF4D875E878D859E850E94B611F82E69
:1028C000882309F459CF86E0F801A5EBB1E0019027
:1028D0000D928A95E1F785EB91E00E94AE0D0E9482
:1028E00033121CCF1F93CF93DF93CDB7DEB72C9756
:1028F0000FB6F894DEBF0FBECDBF4F8358876987F0
:102900007A878B879C87CE0107960E949E12882328
:1029100009F442C09F8188852A853B85232B39F0A5
:102920008F3F19F481E09F3F19F080E001C081E002
:1029300080FD08C04F81588569857A858B859C8587
:102940000E94F41116E0809183019091840189170F
:1029500009F467C0819FC00111248B579E4F0E94CC
:102960009E12882309F45DC0E09183011E9FF0014F
:102970001124EB57FE4F4081518162817381848124
:1029800095810E94F4118091830190E001968770F7
:10299000992780938301D7CF86E0FE013796DE0129
:1029A000119601900D928A95E1F79F8188852A857D
:1029B0003B85232B39F08F3F19F481E09F3F19F0BD
:1029C00080E001C081E080FDBDCF2091840130E036
:1029D000C90101968770992740918301481719060C
:1029E00099F096E0929FD001939FB00D1124AB57C0
:1029F000BE4FFE01319601900D929A95E1F78093BA
:102A000084010E9404129ECF0E94B2111092840190
:102A10001092830186E0E5EBF1E0DF011D928A95DB
:102A2000E9F72C960FB6F894DEBF0FBECDBFDF914D
:102A3000CF911F910895EF92FF920F931F93CF9321
:102A4000DF938C01892B81F0F12CEE24E394E801D3
:102A50002196F8018491843770F4843008F05FC0C7
:102A60008130B1F08230A1F1DF91CF911F910F91B0
:102A7000FF90EF900895853709F44CC008F43DC0ED
:102A80009CE7980F903780F78F770E948E0E49C091
:102A90000E5F1F4FFE01849190E2980F983060F412
:102AA0008770FE2D01C0FF0F8A95EAF78F2F0E94D5
:102AB0008A170E94321702C00E94B30D8F2D8150D9
:102AC00030F2EFE9FFE03197F1F700C00000F7CFF7
:102AD0000E5F1F4FFE01849190E2980F983050F4E2
:102AE0008770FE2D01C0FF0F8A95EAF78F2F0E9495
:102AF0009017DFCF0E948E0EE1CF0E5F1F4FFE01B9
:102B0000C491C150D8F28FE99FE00197F1F700C05E
:102B10000000F7CF0E5F1F4FFE01F490CFCF0E9451
:102B2000B30D8E01CBCF08950E9493156093BF0122
:102B30007093C0018093C1019093C2010C949E11C7
:102B400008950C9494150F931F930091BF01109159
:102B5000C0012091C1013091C201602B712B822BE9
:102B6000932B1F910F910C9494150F931F93009129
:102B7000BF011091C0012091C1013091C2016023B9
:102B80007123822393231F910F910C9494150F931B
:102B90001F930091BF011091C0012091C10130919C
:102BA000C20160277127822793271F910F910C94F0
:102BB00094150C9493150C94D9150E94DB15609311
:102BC000BB017093BC018093BD019093BE010C9436
:102BD0009E1160E070E0CB010C94DD150F931F9304
:102BE00041E050E060E070E08A019B0104C0000F0A
:102BF000111F221F331F8A95D2F7C901B8011F91F7
:102C00000F910C94DD150F931F9341E050E060E0AD
:102C100070E004C0440F551F661F771F8A95D2F7D6
:102C20008091BB019091BC01A091BD01B091BE010A
:102C30008A019B01082B192B2A2B3B2BC901B801B8
:102C40001F910F910C94DD150F931F9341E050E0FD
:102C500060E070E004C0440F551F661F771F8A951F
:102C6000D2F7CB01BA01609570958095909500914F
:102C7000BB011091BC012091BD013091BE016023C8
:102C80007123822393231F910F910C94DD150F93D1
:102C90001F9341E050E060E070E004C0440F551F16
:102CA000661F771F8A95D2F78091BB019091BC0176
:102CB000A091BD01B091BE018A019B01082719278F
:102CC0002A273B27C901B8011F910F910C94DD15EC
:102CD0000F931F930091BB011091BC012091BD0186
:102CE0003091BE01602B712B822B932B1F910F9182
:102CF0000C94DD150F931F930091BB011091BC0143
:102D00002091BD013091BE01602371238223932362
:102D10001F910F910C94DD150F931F930091BB0130
:102D20001091BC012091BD013091BE016027712737
:102D3000822793271F910F910C94DD150895BF9260
:102D4000CF92DF92EF92FF920F931F93CF93DF9377
:102D50008C01C090BB01D090BC01E090BD01F0900F
:102D6000BE018091BF019091C001A091C101B091BD
:102D7000C201C82AD92AEA2AFB2ACFE1D0E0BC2E18
:102D8000D701C6010C2E04C0B695A79597958795D7
:102D90000A94D2F780FD0EC0219788F7B12C8B2DB5
:102DA000DF91CF911F910F91FF90EF90DF90CF9027
:102DB000BF900895B8018C2F0E94EA07019761F334
:102DC000EECFCF93DF93EC010E949F16BE01DF91FF
:102DD000CF910C94EA07CB010C94E116682F8091F7
:102DE0000001909101010C943518682F8091000129
:102DF000909101010C94371880910001909101018C
:102E00000C9439188091C301859585958595089511
:102E10008091C3018770089598E0899F90011124E3
:102E2000622B6093C3010C9403169091C3018095AB
:102E300089238093C301282F277061F4282F082E3F
:102E4000000C330B9217130629F08595859585950F
:102E50000C94241608959091C301977081E009F4B1
:102E600080E00895E0910001F09101018091CF018F
:102E70008083E0910001F091010180819091CE0169
:102E8000892B8083E0910001F09101018081909174
:102E9000CD01892B80839091C401992381F0E09129
:102EA0000001F09101018081892B808380910001D4
:102EB000909101010E94011881111092C40180912A
:102EC0000001909101010C940F0C8091CF010895A5
:102ED0009091CF01892B8093CF010895982F9095E1
:102EE0008091CF0189238093CF0108951092CF0163
:102EF00008959091CE01892B8093CE010895982F4B
:102F000090958091CE0189238093CE0108951092EF
:102F1000CE0108959091CD01892B8093CD01089524
:102F2000982F90958091CD0189238093CD010895AC
:102F30001092CD0108958093C40108951092C401A8
:102F4000089590934501809344010895829590E0FF
:102F50009C01220F331F220F331F2C7C95958795E0
:102F6000959587958373282B30E0C901880F991FA9
:102F70008A7A359527952575822B0895CF93DF930F
:102F8000D92F0E94A617C82F8D2F0E94A6179C2FFD
:102F9000DF91CF9108956DEE7EEF90E080E00E948A
:102FA000BF2760E082E090E00E94AD2760E083E010
:102FB00090E00E94AD2760E084E090E00E94AD27A1
:102FC00060E085E090E00C94AD2790E080E00E9406
:102FD000A72721E08D3E9E4F09F020E0822F089523
:102FE00082E090E00C949F2783E090E00C949F2770
:102FF00084E090E00C949F27682F84E090E00C948C
:10300000AD27FC0131969C01285F3F4F80E09191F4
:1030100091118F5FE217F307D1F708959C01FC012E
:1030200032969FEF80E04191461751F09F3F19F48F
:10303000411101C0982F8F5F8630A9F79F3F09F497
:103040000895290F311D97FD3A95F901628308957E
:10305000FC01329608962191261303C0DF011197D7
:103060001C92E817F907B9F708950C940E180C9400
:103070002818FC0111821282138214821582168292
:10308000178208958091F701843039F11092D101AF
:1030900088E190E020E40FB6F894A8958093600052
:1030A0000FBE2093600080E00E94CB0783B7817F32
:1030B000846083BF83B7816083BF7894889583B72A
:1030C0008E7F83BF0FB6F894A895809160008861C9
:1030D00080936000109260000FBE089508950895D7
:1030E000CF930E946E180E94EC0A0E946F18C0E0F5
:1030F0008C2F0E94AE0B892B31F4CF5FC530C1F706
:1031000080E0CF91089581E0FCCF0E94B2110E942F
:10311000030C0C94CB071F920F920FB60F92112441
:103120008F939F93AF93BF938091D101811113C06F
:103130008091ED019091EE01A091EF01B091F0012D
:103140004196A11DB11D8093ED019093EE01A093D6
:10315000EF01B093F001BF91AF919F918F910F90CC
:103160000FBE0F901F90189582E084BD93E095BD2F
:103170009AEF97BD80936E0008952FB7F8948091D1
:10318000ED019091EE01A091EF01B091F0012FBF00
:1031900008952FB7F8946091ED017091EE01809140
:1031A000EF019091F0012FBF0895CF92DF92EF923F
:1031B000FF920F931F932FB7F8944091ED01509118
:1031C000EE016091EF017091F0012FBF6A017B0168
:1031D000EE24FF248C0130E020E0C016D106E20688
:1031E000F30650F0481B590BCA011F910F91FF9035
:1031F000EF90DF90CF90089541505109F3CF78942C
:103200001F920F920FB60F9211248F939F93AF933B
:10321000BF938091ED019091EE01A091EF01B091EB
:10322000F0010196A11DB11D8093ED019093EE0177
:10323000A093EF01B093F001BF91AF919F918F9157
:103240000F900FBE0F901F90189581E08093E000C3
:1032500080E28093D8001092C9008FE19EE401972C
:10326000F1F700C0000087E090EBDC0180930002E2
:1032700090930102A0930202B093030288E19CE0C4
:103280000FB6F894A895809360000FBE90936000ED
:10329000FFCF0E94E517811102C00E94CB170E9448
:1032A000F0178093D0010E94F81790E09093F201FC
:1032B0008093F1010E94F417682F70E090E080E0A5
:1032C0000C94A1158091D40180FF12C0609105017A
:1032D00085E0689FB0011124759567957595679590
:1032E00060387105A8F561157105A1F1862F089563
:1032F00081FF09C06091050185E0689FB00111243C
:1033000075956795EDCF82FF07C06091050185E057
:10331000689FB0011124E4CF2091D5012223A9F0A8
:10332000909104016091050185E0689FB00111242E
:103330002917B0F6269FA001279F500D1124692F51
:1033400070E0CA010E947127CBCF65E070E0CECF5C
:103350008FE7089581E008958091D40180FF0CC02B
:103360006091030170E07595679575956795611596
:10337000710549F1862F089581FF06C06091030110
:1033800070E075956795F3CF6091030182FD0BC0E6
:103390009091D5019923A1F06091020180910301E0
:1033A000961738F0682F70E06038710500F38FE7EA
:1033B0000895899FC001112470E00E947127F4CF05
:1033C00061E070E0D7CF81E00895803F31F40E9442
:1033D000621981958093D8010895813F19F40E9464
:1033E0006219F8CF823F31F40E946219819580936F
:1033F000D7010895833F19F40E946219F8CF893FDD
:1034000029F40E94AC198093D90108958A3F21F4D0
:103410000E94AC198195F7CF8B3F31F40E94AC1913
:1034200081958093DA0108958C3F19F40E94AC19BC
:10343000F8CF843F31F48091D60181608093D6012A
:103440000895853F21F48091D6018260F7CF863FB1
:1034500021F48091D6018460F1CF873F21F48091DF
:10346000D6018860EBCF883F21F48091D60180613E
:10347000E5CF8D3F31F48091D40181608093D401F8
:1034800008958E3F21F48091D4018260F7CF8F3F61
:10349000B9F78091D4018460F1CF803FC1F480916D
:1034A000D80187FD1092D8018091D70181110EC0FB
:1034B0008091D80181110AC08091D901811106C083
:1034C0008091DA01811102C01092D5010895813FE7
:1034D00029F48091D80118162CF3E6CF9091D701EA
:1034E000823F29F497FFE0CF1092D701DDCF833FD1
:1034F00019F41916CCF3D8CF893F39F48091D9014A
:10350000181694F61092D901CFCF8A3F29F48091F2
:10351000D90187FFC9CFF6CF8B3F39F48091DA010B
:1035200087FFC2CF1092DA01BFCF8C3F29F4809180
:10353000DA011816BCF3B8CF843F31F48091D6017C
:103540008E7F8093D601B0CF853F21F48091D60144
:103550008D7FF7CF863F21F48091D6018B7FF1CF0D
:10356000873F21F48091D601877FEBCF883F21F4FC
:103570008091D6018F7EE5CF8D3F31F48091D401CB
:103580008E7F8093D40190CF8E3F21F48091D4011F
:103590008D7FF7CF8F3F09F087CF8091D4018B7F4C
:1035A000F0CF8091D00183FF7EC081EC91E00E943A
:1035B0007B058091D6011F928F938CEB91E09F93B6
:1035C0008F930E9414068AEB91E00E947B05809104
:1035D000D701282F082E000C330B3F938F9387EBD6
:1035E00091E09F938F930E94140685EB91E00E94D7
:1035F0007B058091D801282F082E000C330B3F93B8
:103600008F9382EB91E09F938F930E94140680EB3F
:1036100091E00E947B058091D901282F082E000C93
:10362000330B3F938F938DEA91E09F938F930E948A
:1036300014068BEA91E00E947B058091DA01282F25
:10364000082E000C330B3F938F9388EA91E09F93F1
:103650008F930E94140685EA91E00E947B05809179
:10366000D5011F928F9382EA91E09F938F930E94DE
:10367000140680EA91E00E947B058091D4011F929C
:103680008F938DE991E09F938F930E9414068AE9AE
:1036900091E00E947B058DB79EB74C960FB6F894CB
:1036A0009EBF0FBE8DBF86ED91E00E945B0C0E9415
:1036B000BD189093D3018093D20108951F93CF93A7
:1036C000DF938091D2019091D3010E94D518AC0173
:1036D0009091D5012091060130E0911106C0209112
:1036E00007018AE0289F900111244217530780F0B8
:1036F0008091D7011091D801D091D901C091DA0100
:1037000081110AC0111161C0D1115FC0C1115DC02A
:10371000DF91CF911F9108959F3F19F09F5F909384
:10372000D501181624F40E9462198093D701809164
:10373000D70187FF05C00E94621981958093D70148
:10374000111624F40E9462198093D8018091D80147
:1037500087FF05C00E94621981958093D80140912E
:10376000D701442379F03091D801332359F025EB68
:103770004203A00111245093D70132039001112478
:103780003093D8011D1624F40E94AC198093D901FE
:103790008091D90187FF05C00E94AC198195809363
:1037A000D9011C1624F40E94AC198093DA0180918F
:1037B000DA0187FF05C00E94AC1981958093DA0178
:1037C000DF91CF911F910C94D11A9F3F09F0A6CFA2
:1037D000B7CF85E0E6EDF1E0DF011D928A95E9F7CC
:1037E0001092D5011092D401089584EE93E00E94C6
:1037F0007B051F9281E08F931F9285E08F9386E96E
:1038000093E09F938F930E9414060F900F900F9058
:103810000F900F900F900895833009F445C028F45D
:10382000813061F0823049F10895853009F46AC031
:1038300008F451C0863009F47CC0089580910701D6
:10384000482F460F5527551F4F3F510594F4680FD9
:1038500060930701809107011F928F938FEC92E094
:103860009F938F930E9414060F900F900F900F90CC
:1038700008958FEF80930701EDCF80910601482FC7
:10388000460F5527551F4F3F510554F4680F60935D
:103890000601809106011F928F938DEB92E0E0CF9D
:1038A0008FEF80930601F5CF80910501482F460FD9
:1038B0005527551F4F3F510554F4680F609305017C
:1038C000809105011F928F938AEA92E0C9CF8FEF12
:1038D00080930501F5CF80910401482F460F5527AD
:1038E000551F4F3F510554F4680F609304018091B8
:1038F00004011F928F9385E992E0B2CF8FEF8093FE
:103900000401F5CF80910301482F460F5527551F1D
:103910004F3F510554F4680F6093030180910301F8
:103920001F928F938CE792E09BCF8FEF80930301E0
:10393000F5CF80910201482F460F5527551F4F3F65
:10394000510554F4680F60930201809102011F92A7
:103950008F9381E692E084CF8FEF80930201F5CFC1
:103960008330C9F128F4813061F0823019F1089573
:10397000853009F452C008F43FC0863009F45EC0B7
:10398000089580910701681790F4861B80930701C2
:10399000809107011F928F9382E592E09F938F930E
:1039A0000E9414060F900F900F900F9008951092A0
:1039B0000701EECF80910601681750F4861B8093B3
:1039C0000601809106011F928F9380E492E0E6CF7A
:1039D00010920601F6CF80910501681750F4861BFE
:1039E00080930501809105011F928F938DE292E0F3
:1039F000D5CF10920501F6CF80910401681750F4DD
:103A0000861B80930401809104011F928F9388E1AB
:103A100092E0C4CF10920401F6CF809103016817A1
:103A200050F4861B80930301809103011F928F93B2
:103A30008FEF91E0B3CF10920301F6CF8091020196
:103A4000681750F4861B80930201809102011F9237
:103A50008F9384EE91E0A2CF10920201F6CFCF9324
:103A6000C82F1F928F9389EE94E09F938F930E94AB
:103A7000140661E070E080E090E004C0660F771FFC
:103A8000881F991FCA95D2F70E94A1150F900F9019
:103A90000F900F90CF910C94B211873208F040C074
:103AA0008E3108F0FBC08E3009F497C078F487306F
:103AB00009F478C08B3009F45EC0863009F460C028
:103AC0008CEF97E00E947B0580E00895863109F431
:103AD000AEC078F48031A1F79091D001892F877F13
:103AE00093FF88608093D00183FF87C08BE098E0CC
:103AF00011C0893109F484C08B3111F79091D00144
:103B0000892F8D7F91FF82608093D00181FF62C0F9
:103B100084E498E00E947B058091D001816057C0C9
:103B2000883349F150F4893221F0853311F087321E
:103B300039F680E00E942F1D1CC08334D1F328F495
:103B40008A3308F4BDCF8953F5CF883409F0B8CF54
:103B50000E94B2118AE698E00E947B052FEF83ED68
:103B600090E3215080409040E1F700C000000E94A7
:103B7000251981E0089580E796E00E947B05F9CF42
:103B80008091D001817F8E7F8093D00189E496E07F
:103B90000E947B0586E898E00E947B0581E0809387
:103BA000DC0108959091D001892F8E7F90FF816074
:103BB0008093D00180FF03C08EE598E0DECF81E5E1
:103BC00098E00E947B058091D001897F877F809358
:103BD000D001CFCF86E398E0D0CF9091D001892F4C
:103BE0008B7F92FF84608093D00182FF03C087E2C5
:103BF00098E090CF87E198E0C0CF8EEF97E0BDCFFF
:103C00008AE396E00E947B0581E296E00E947B05B4
:103C10008AEE95E00E947B0588EB95E00E947B058B
:103C200082E895E00E947B0587E595E0A6CF89E4D0
:103C300095E00E947B050E94030C1F928F938FE2F8
:103C400095E09F938F930E941406809112011F921A
:103C50008F9388E195E09F938F930E941406809143
:103C6000E9011F928F9385E095E09F938F930E94C7
:103C700014060E94C9189F938F937F936F938EEEC3
:103C800094E09F938F930E9414068DB79EB742963F
:103C90000FB6F8949EBF0FBE8DBF6BCF8D514ACF2C
:103CA00080E008950C94501E8E518A3030F4E82F35
:103CB000F0E0EB5DFE4F8081089580E00895CF93A2
:103CC000C82F8091DC018130D1F038F0823009F4C6
:103CD0004DC01092DC0180E010C0E0910001F09135
:103CE000010180818232B9F78C2F0E94501E811110
:103CF0001EC08C2F0E944D1D8170CF910895E091C0
:103D00000001F09101018081823271F38C2F0E94B9
:103D1000521E81111BC0C431D9F060F4CB3071F058
:103D2000C031D1F08FED94E00E947B0513C081E09B
:103D300090E0E2CFC93261F0C833A1F789E496E0A0
:103D40000E947B0585EE94E00E947B0581E0D4CF44
:103D50001092DC0180E0D0CF0E94F51B81EE94E050
:103D60000E947B0582E08093DC01F0CFC432C8F46E
:103D7000CE3108F0BEC0CB30E1F040F4C73009F4DA
:103D8000CCC083E893E00E947B0526C0C331C1F11B
:103D9000C431B9F78091DB01882351F11092DB0126
:103DA0000AC0CB3409F4B7C0C8F4C93299F3C83398
:103DB00041F70E94F51B8091DB01882309F4C4C000
:103DC0001F928F938DE793E09F938F930E94140629
:103DD0000F900F900F900F9081E08FCFC13509F4B5
:103DE00094C0C23509F48BC0CE3459F66AE08EC057
:103DF00082E993E00E947B0581E08093DC017DCF26
:103E00008CE693E00E947B058AE593E00E947B05A7
:103E1000809107011F928F9387E593E09F938F9383
:103E20000E94140685E593E00E947B0583E493E0FD
:103E30000E947B05809106011F928F9380E493E09E
:103E40009F938F930E9414068EE393E00E947B055C
:103E50008FE293E00E947B05809105011F928F9372
:103E60008CE293E09F938F930E9414068AE293E082
:103E70000E947B0589E193E00E947B05809104010B
:103E80001F928F9386E193E09F938F930E94140675
:103E900084E193E00E947B058FEF92E00E947B0516
:103EA000809103011F928F938CEF92E09F938F93E9
:103EB0000E9414068AEF92E00E947B0583EE92E056
:103EC0000E947B05809102011F928F9380EE92E009
:103ED0009F938F930E9414068EED92E00E947B05C3
:103EE0008DB79EB748960FB6F8949EBF0FBE8DBF94
:103EF00062CF8C2F0E94541E8093DB015CCF61E067
:103F00008091DB010E940C1C56CF61E08091DB01A7
:103F10000E94B01C50CF6AE0F3CF8EE1809307017E
:103F200082E3809306018AE08093050184E1809317
:103F3000040188E08093030188E28093020185E810
:103F400093E00E947B0537CF8AE793E01CCF8091F6
:103F5000E80108959FB7F8941092DF019FBF9091F8
:103F6000F701943009F049C02091E9002F70909139
:103F7000EC0090FD30C090E0922B24E02093E9000B
:103F80002091EB0020FF36C02091EE0027FF32C0C9
:103F90002091DD01222321F02091E80025FF2AC095
:103FA0001092DD0126E03091E80035FF16C08093C5
:103FB000F1008091E80085FD29C08091E80080FF34
:103FC000FCCF8091E8008E778093E8009F709093FB
:103FD000E90080E0089590E8CFCF3091F7013430C8
:103FE00049F43091EB0035FD05C0215041F481E0EA
:103FF0008093DD019F709093E9008FEF0895EFE9C2
:10400000FFE03197F1F700C00000CDCF8FB7F894F3
:1040100021E02093DF018FBFD9CF0F931F93CF9360
:10402000DF9300D01F92CDB7DEB78C010E94B7227C
:10403000823011F0843019F583E089831B830A8371
:104040008093E9008FEF9091E800815095FD06C0C4
:1040500095ED9A95F1F700008111F5CF8091E80078
:1040600085FF0DC050E040E063E070E0CE010196B6
:104070000E94D4228091E8008E778093E8000F9010
:104080000F900F90DF91CF911F910F910895CF93D3
:10409000DF9300D01F92CDB7DEB72091F701243017
:1040A00031F522E02983805891099B838A8383E03C
:1040B0008093E9008FEF9091E800815095FD06C054
:1040C00095ED9A95F1F700008111F5CF8091E80008
:1040D00085FF0DC050E040E063E070E0CE01019646
:1040E0000E94D4228091E8008E778093E8000F90A0
:1040F0000F900F90DF91CF910895CF93DF93EC0154
:104100000E94B722823011F08430F9F482E080936B
:10411000E9008FEF9091E800815095FD06C095ED84
:104120009A95F1F700008111F5CF8091E80085FFA5
:104130000CC050E040E065E070E0CE010E94D42267
:104140008091E8008E778093E800DF91CF91089509
:10415000CF93DF93EC010E94B722823011F08430BC
:1041600039F581E08093E9008FEF9091E80081506C
:1041700095FD06C095ED9A95F1F700008111F5CFF8
:104180008091E80085FF14C050E040E068E070E0F6
:10419000CE010E94D4228091E8008E778093E800BF
:1041A00088E0FE01A0EEB1E001900D928A95E1F762
:1041B000DF91CF9108958FEA98E00E947B0580916E
:1041C000F601811109C00E9464240E94C1248091DB
:1041D000E20084608093E20008958BEA98E00E94F8
:1041E0007B051092F601089587EA98E00C947B0510
:1041F00083EA98E00C947B058FE998E00E947B05A8
:104200000C9485182091DE012F5F822F62E30E94BB
:104210006527992319F02093DE0108951092DE019D
:104220008091DF018823E9F08091F7018430B9F4AF
:104230009091E9009F708091EC0080FD13C080E0B8
:10424000892B94E09093E9009091EB0090FF04C0DB
:104250009091EE0097FD0AC08F708093E900109254
:10426000DF01089580E8ECCF1092F1009091E80012
:1042700095FDFACF9091E80090FFEECF9091E80085
:104280009E779093E800E8CF42E061EC81E00E94E5
:10429000E22342E061EC82E00E94E22342E061EC32
:1042A00083E00E94E22342E261EC84E00C94E2238A
:1042B0008091F901833009F452C030F4813059F112
:1042C000823009F48EC008958A3009F47AC08B30A8
:1042D00009F460C0893009F041C08091F801813251
:1042E000E9F58091FC019091FD01892BB9F5809150
:1042F000E800877F8093E8008091E80082FF2AC071
:104300008091F1008093E8018091E8008B778093A1
:10431000E8000C9416248091F801813AF9F4809118
:10432000E800877F8093E8008091FC019091FD0177
:10433000892B61F468E080EE91E070E00E94232315
:104340008091E8008B778093E800089560E090E02A
:1043500080E0F3CF8091F7018111CECF0895809155
:10436000F801813AD9F78091FC019091FD01892BE8
:10437000A9F78091E800877F8093E8008091E800AA
:1043800080FFFCCF809112018093F1008091E800C2
:104390008E77BDCF8091F801813201F78091FC01C9
:1043A0009091FD01892BD1F68091E800877F809361
:1043B000E8000E9416248091FA01809312010C9467
:1043C000B2118091F801813249F68091E800877F2F
:1043D0008093E8000E9416248091FB018093E901FC
:1043E00008958091F801813A09F0B8CF8091E800F2
:1043F000877F8093E8008091E80080FFFCCF809168
:10440000E901C2CF84B7877F84BF0FB6F894A8951F
:1044100080916000886180936000109260000FBE00
:1044200080E880936100109261000E94930C0E94CA
:1044300064240E94C1248091E20084608093E200A1
:104440008AEA9FE10E94A11778940E9449270E945E
:10445000970C88E091E00E94FE0B8EE898E00E94A5
:104460007B058091F701853019F00E94C50CF9CFCA
:104470008AE898E00E947B050E9442188091F5012D
:10448000882379F30E947018882359F30E94BE2272
:10449000E8CF0C944B22292F33272330310579F1B3
:1044A00058F421303105F1F02230310519F190E056
:1044B00080E030E020E01AC021323105C9F122321B
:1044C0003105A9F76430710590F7FB01EE0FFF1F6E
:1044D000ED5CFE4F20813181615D7E4FFB0180816B
:1044E00090E004C082E190E025E539E0FA013183F3
:1044F0002083089584E790E021EE38E0F7CF9927F4
:104500008130910579F040F08230910571F0039788
:1045100071F6E3EBF8E002C0EDEDF8E0849190E095
:104520009F01E4CFE3EDF8E0F9CFE9EBF8E0F6CF57
:104530006430710508F0BBCF660F771FFB01E55CA7
:10454000FE4F2081318189E090E0D0CF0895CF9354
:10455000C82F0E94A622C093EA01CF9108958091AE
:10456000F701843011F081E0089582E00895809190
:10457000EA01811102C00C94AF22089580E189BD47
:1045800082E189BD09B400FEFDCF8091D8008F7D06
:104590008093D8008091E00082608093E000809159
:1045A000E00081FDFCCF0895AF92BF92CF92DF92E1
:1045B000FF920F931F93CF93DF936C01EB018A015E
:1045C0000E943524F82E811123C00115110539F000
:1045D000F80180819181C81BD90BC80ED91EB12C5E
:1045E000A12C2097A9F08091E80085FD22C0809140
:1045F000E8008E778093E80001151105A1F0F8011D
:1046000080819181A80EB91EB182A08285E0F82E2A
:104610008F2DDF91CF911F910F91FF90DF90CF9061
:10462000BF90AF9008950E9435248823D1F2F82ED0
:10463000EFCFF60181916F018093F1002197FFEF99
:10464000AF1ABF0ACECFFC018091FE019091FF010D
:1046500086179707A0F06115710529F49091E8007D
:104660009E779093E80090E06115710551F49111E7
:1046700008C08091E80082FF35C080E00895BC0149
:10468000F2CF8091F7018823C9F18530C9F180917B
:10469000E80083FD31C08091E80082FDEACF80917F
:1046A000E80080FFE1CF2091F3008091F200322FEB
:1046B000282F6115710519F02830310558F091E067
:1046C0002830310509F090E02091E8002E77209302
:1046D000E800CACF81918093F100615071092F5F8A
:1046E0003F4FE7CF8091F701882341F0853041F0BB
:1046F0008091E80083FFBDCF81E0089582E00895B6
:1047000083E00895FC018091FE019091FF018617DE
:104710009707A0F06115710529F48091E8008E7764
:104720008093E80090E06115710551F4911108C083
:104730008091E80082FF36C080E00895BC01F2CF8E
:104740008091F7018823D1F18530D1F18091E80083
:1047500083FD32C08091E80082FDEACF8091E800BD
:1047600080FFE1CF2091F3008091F200322F282FBB
:104770006115710519F02830310558F091E02830A5
:10478000310509F090E08091E8008E778093E80091
:10479000CACF84918093F1003196615071092F5FE7
:1047A0003F4FE6CF8091F701882341F0853041F0FB
:1047B0008091E80083FFBCCF81E0089582E00895F6
:1047C00083E00895982F973028F08F708093E90048
:1047D00081E008959093E900242F762F50E09817F8
:1047E00031F07091EC002091ED005091F00021FD2E
:1047F00002C09F5FE8CF3091EB003E7F3093EB002B
:104800003091ED003D7F3093ED003091EB00316051
:104810003093EB007093EC002093ED005093F00088
:104820002091EE0027FDE5CF80E008958091F8010A
:1048300087FF13C08091E80082FF06C08091E800E6
:104840008B778093E80004C08091F7018111F2CF4B
:1048500008958091F7018823D9F38091E80080FFC3
:10486000F8CF8091E8008E77ECCF2091E400309172
:10487000E50085E69091EC0090FF06C09091E8007D
:1048800090FF06C080E008959091E80092FDFACF75
:104890009091F701992391F0953091F09091EB0070
:1048A00095FD10C04091E4005091E50024173507B4
:1048B00009F381509A01F1F684E0089582E00895A9
:1048C00083E0089581E008950E94D2240E94DA24B2
:1048D000E0EEF0E0808181608083E8EDF0E08081AF
:1048E0008F77808319BCA7EDB0E08C918E7F8C937D
:1048F00080818F7E80831092F60108950F931F931D
:10490000CF93DF930E94D2240E94DA24C8EDD0E036
:1049100088818F77888388818068888388818F7D6C
:10492000888319BC1092F7011092F3011092F501DF
:104930001092F40100EE10E0F80180818B7F8083FB
:1049400088818160888342E060E080E00E94E22309
:10495000E1EEF0E080818E7F8083E2EEF0E0808106
:1049600081608083808188608083F80180818E7F70
:104970008083888180618883DF91CF911F910F911F
:104980000895E8EDF0E080818F7E8083E7EDF0E030
:1049900080818160808384E082BF81E08093F60122
:1049A0000C947E24E8EDF0E080818E7F808310926D
:1049B000E20008951092DA001092E10008951F922B
:1049C0000F920FB60F9211242F933F934F935F9343
:1049D0006F937F938F939F93AF93BF93EF93FF93C7
:1049E0008091E10082FF0BC08091E20082FF07C04E
:1049F0008091E1008B7F8093E1000E9402218091F1
:104A0000DA0080FF19C08091D80080FF15C0809126
:104A1000DA008E7F8093DA008091D90080FF94C005
:104A200080E189BD82E189BD09B400FEFDCF81E04E
:104A30008093F7010E94DB208091E10080FF19C084
:104A40008091E20080FF15C08091E2008E7F80930C
:104A5000E2008091E20080618093E2008091D800C2
:104A600080628093D80019BC85E08093F7010E9492
:104A7000F8208091E10084FF29C08091E20084FF4A
:104A800025C080E189BD82E189BD09B400FEFDCF6A
:104A90008091D8008F7D8093D8008091E1008F7E37
:104AA0008093E1008091E2008F7E8093E20080910C
:104AB000E20081608093E2008091F301882309F491
:104AC00049C084E08093F7010E94FC208091E100BE
:104AD00083FF29C08091E20083FF25C08091E1001F
:104AE000877F8093E10082E08093F7011092F301C9
:104AF0008091E1008E7F8093E1008091E2008E7FC3
:104B00008093E2008091E20080618093E20042E0C5
:104B100060E080E00E94E2238091F0008860809352
:104B2000F0000E94F420FF91EF91BF91AF919F910F
:104B30008F917F916F915F914F913F912F910F9046
:104B40000FBE0F901F90189519BC1092F7010E948C
:104B5000ED2072CF8091E30087FD02C081E0B2CFEB
:104B600083E0B0CF1F920F920FB60F9211242F93B4
:104B70003F934F935F936F937F938F939F93AF93E5
:104B8000BF93CF93EF93FF93C091E900CF708091D3
:104B9000EC001092E9008091F000877F8093F00094
:104BA00078940E94EE251092E9008091F0008860D0
:104BB0008093F000C093E900FF91EF91CF91BF91F6
:104BC000AF919F918F917F916F915F914F913F91A5
:104BD0002F910F900FBE0F901F9018951F93CF939A
:104BE000DF93CDB7DEB7AA970FB6F894DEBF0FBE3E
:104BF000CDBFE8EFF1E08091F100819322E0E03059
:104C0000F207C9F70E9458218091E80083FF44C051
:104C10008091F8019091F9019A3008F03DC0E92F98
:104C2000F0E0EB5EF94D0C9485271F2645264C26B7
:104C300045264C26A326C5264C261C272927803826
:104C400089F0823849F58091FC018F70873020F51A
:104C50008093E9008091EB0085FB882780F9109212
:104C6000E90006C08091F4019091F50191118260F4
:104C70009091E800977F9093E8008093F100109264
:104C8000F1008091E8008E772DC0282F2D7F21F430
:104C90008823D1F0823059F18091E80083FF0AC067
:104CA0008091E800877F8093E8008091EB0080622C
:104CB0008093EB00AA960FB6F894DEBF0FBECDBF6F
:104CC000DF91CF911F9108958091FA01813021F7F2
:104CD000933009F080E08093F5011092E900809113
:104CE000E800877F8093E8000E941624D5CF80914A
:104CF000FA018111F2CF8091FC018F702FEF280F04
:104D0000263050F68093E9002091EB0020FFE5CF9C
:104D1000933031F48091EB0080628093EB00DDCF23
:104D20009091EB0090619093EB0021E030E001C0A6
:104D3000220F8A95EAF72093EA001092EA00809108
:104D4000EB008860EACF8111A7CF1091FA011F779D
:104D50008091E3008078812B8093E3008091E800CC
:104D6000877F8093E8000E9416248091E80080FFEE
:104D7000FCCF8091E30080688093E30083E0111111
:104D800001C082E08093F70187CF8058823008F01D
:104D900083CF8091FA019091FB018C3D23E0920733
:104DA000A1F583E08A838AE289834FB7F894DE0114
:104DB000139620E03EE051E2E32FF0E050935700DD
:104DC000E49120FF03C0E295EF703F5FEF708E2FFC
:104DD00090E0EA30C0F0C7968D939D932F5F243109
:104DE00059F74FBF8091E800877F8093E8006AE21F
:104DF00070E0CE0101960E9423238091E8008B771A
:104E00008093E80049CFC096E7CF6091FC01709194
:104E1000FD01AE014F5F5F4F0E944922BC01892B0B
:104E200009F43ACF9091E800977F9093E800898148
:104E30009A810E948223E1CF803809F02DCF8091A2
:104E4000E800877F8093E8008091F3018093F10070
:104E500018CF811121CF9091FA01923008F01CCF28
:104E60008091E800877F8093E8009093F3010E948F
:104E700016248091F301882331F084E08093F701B8
:104E80000E94442109CF8091E30087FDF6CF81E0A5
:104E9000F5CFCF938091F701882399F0C091E90075
:104EA000CF708091EC0080FD0EC080E0C82B109286
:104EB000E9008091E80083FD0E94EE25CF70C09349
:104EC000E900CF91089580E8F1CF991B79E004C003
:104ED000991F961708F0961B881F7A95C9F7809539
:104EE000089597FB072E16F4009407D077FD09D09C
:104EF0000E948B2707FC05D03EF4909581959F4F2B
:104F00000895709561957F4F0895EE0FFF1F0590EE
:104F1000F491E02D0994AA1BBB1B51E107C0AA1F05
:104F2000BB1FA617B70710F0A61BB70B881F991F4A
:104F30005A95A9F780959095BC01CD010895F999EE
:104F4000FECF92BD81BDF89A992780B50895A8E15A
:104F5000B0E042E050E00C94C727262FF999FECF2D
:104F600092BD81BDF89A019700B4021639F01FBABC
:104F700020BD0FB6F894FA9AF99A0FBE08950196DB
:104F8000272F0E94AE270C94AD27DC01CB01FC013A
:104F9000F999FECF06C0F2BDE1BDF89A319600B492
:0E4FA0000D9241505040B8F70895F894FFCF9D
:104FAE00C5012808140A321EA71FA8207D204720FD
:104FBE000D20019697343536F7F6F5F4F1F03130D1
:104FCE0032333790910102030405060708090040A9
:104FDE004D36220C0ABF0989096709F3080C092509
:044FEE00093E09006F
:00000001FF
